:100000000C9499000C94C8550C946E500C94413E7D
:100010000C9457440C94C8550C94C8550C94C8556E
:100020000C94C8550C94C8550C94C8550C94C855DC
:100030000C94C8550C94C8550C94C8550C942B4777
:100040000C94C8550C94C8550C94C8550C94C855BC
:100050000C94C8550C94C8550C945F500C94834470
:100060000C94C8550C94C8550C94C8550C94C8559C
:100070000C94C8550C94FE310C94C8550C945845FA
:100080000C9481450C94214D0C94C8550C94C85582
:10009000280031D58031D5322600ABC632263267F2
:1000A00080326732D400AC1732D432E68032E63286
:1000B000F600AC8432F63314803314332200AC944F
:1000C0003322332F80332F33CF00ACA233CF341FF2
:1000D00080341F344300AD423443344780344734C6
:1000E0004B00AD66344B3453803453345700AD6A03
:1000F0003457349F80349F34A300AD6E34A334B39F
:100100008034B334B500AD7234B534BC8034BC3403
:10011000BD0001C134BD34CB8034CB34CC0026E3E8
:1001200034CC34CF8034CF34D000434B34D034D9A6
:10013000800011241FBECFEFCDBFDFE3DEBFE0E9BB
:10014000F0E041E017C0B591A59135912591059159
:1001500007FD0CC095918591EF01F92FE82F0590CF
:100160000D92A217B307D9F7FE0104C01D92A21782
:10017000B307E1F7E133F40731F70E9433550C94EC
:06018000C100F894FFCF5E
:1001860053756E4D6F6E5475655765645468754644
:100196007269536174004A616E4665624D617241CF
:1001A60070724D61794A756E4A756C417567536513
:0B01B600704F63744E6F764465630069
:0101C100FF3E
:1001C200EF92FF920F931F93CF93DF9300D0CDB79F
:1001D200DEB78C011092BF348091BD34823020F0A2
:1001E200833009F497C084C28091C23480FF80C2F8
:1001F200C8010E94C253C80108960E94C25341E03E
:1002020050E06AE472E3C8010E9410390F2EFAE44A
:10021200EF2EF2E3FF2EF02D6BE472E3F701838DF4
:10022200948D0E94254B482F50E06BE472E3C80185
:100232000E9410394AE050E06FE472E3C8010E9464
:10024200103942E050E069E572E3C8010E941039BA
:10025200F70161897289FB0101900020E9F731976A
:10026200AF01461B570BC8010E941039F70187895D
:10027200908D892B31F480915D3290915E32892B81
:1002820051F142E050E06DE572E3C8010E9410397D
:100292000F2EFAE4EF2EF2E3FF2EF02DF701438941
:1002A200548954274527542765897689C8010E94B5
:1002B200103942E050E061E672E3C8010E94103951
:1002C200F7014789508D542745275427618D728D38
:1002D200C8010E941039C8010E94864A882309F485
:1002E2000AC28091C2348E7F8093C23485E08093AB
:1002F200BF3440E355E760E070E081EB93E30E9496
:10030200922F82E08093BD348091C0348E7F80939F
:10031200C034EEC18091C234882309F4E9C1482F68
:1003220050E080FDE5C180E08F5F682F9A01082EC2
:1003320002C0359527950A94E2F720FFF5CF81E0B8
:1003420090E002C0880F991F6A95E2F7883009F49D
:10035200D8C020F4843009F450C0CAC1803109F4F5
:1003620050C1803209F0C4C18091C03481FFC0C144
:100372008091C0348D7F8093C03419821A82C80163
:100382000E94C253C80108960E94C253898181709B
:10039200806C8E7F89831A8241E050E0BE016F5FDC
:1003A2007F4FC8010E94103941E050E0BE016E5FEC
:1003B2007F4FC8010E941039C8010E94864A8823D3
:1003C20009F496C18091C2348F7D8093C2348091AA
:1003D200C13480618093C1348091C0348B7F80931B
:1003E200C03440E355E760E070E08DE993E30E949A
:1003F200922F85E08093BF347BC187EA93E30E940A
:100402009D4DC8010E94C253C80108960E94C25362
:1004120041E050E066EF72E3C8010E9410390F2EEE
:10042200F6EFEF2EF2E3FF2EF02D67EF72E3F70106
:10043200868597850E94254B482F50E067EF72E32F
:10044200C8010E94103942E050E06BEF72E3C8012C
:100452000E941039F70145815681542745275427B8
:1004620067817085C8010E941039F701808186700A
:10047200823071F441E050E060E073E3C8010E9411
:10048200103941E050E06FEF72E3C8010E94103969
:10049200E6EFF2E3438550E064857585C8010E946A
:1004A20010398091C23482FD04C08091F63283FFFC
:1004B20030C1C8010E94864A882309F42AC180916A
:1004C200C2348B7F8093C2348091F6328670823040
:1004D20009F015C18091C13480628093C1340FC18B
:1004E2009827892798279C0121503109A8EEB3E06B
:1004F2000E947D50AB01BC0187EA93E30E94922FD8
:10050200F7C0C8010E94C253C80108960E94C25394
:1005120041E050E066E073E3C8010E9410390F2EFB
:10052200F6E0EF2EF3E3FF2EF02D67E073E3F70121
:10053200848595850E94254B482F50E067E073E340
:10054200C8010E94103941E050E06CE073E3C80139
:100552000E94103941E050E06BE073E3C8010E9451
:10056200103942E050E06DE073E3C8010E94103997
:10057200F7014781508554274527542761857285A5
:10058200C8010E94103941E050E061E173E3C80103
:100592000E941039C8010E94864A8823D1F08091B6
:1005A200C234877F8093C2348091C1348460809347
:1005B200C1348091C034877F8093C03440E355E7D3
:1005C20060E070E083E993E30E94922F85E08093DC
:1005D200BF348091573290915832009709F488C005
:1005E2009827892798279C0121503109A8EEB3E06A
:1005F2000E947D50AB01BC0187EA93E30E94922FD7
:1006020077C0C8010E94C253C80108960E94C25313
:1006120041E050E062E273E3C8010E9410390F2EFC
:10062200F2E2EF2EF3E3FF2EF02D63E273E3F70124
:10063200838594850E94254B482F50E063E273E343
:10064200C8010E94103941E050E068E273E3C8013A
:100652000E94103941E050E067E273E3C8010E9452
:10066200103942E050E069E273E3C8010E94103998
:10067200F7014781508554274527542761857285A4
:10068200C8010E941039C8010E94864A8823D1F00D
:100692008091C2348F7E8093C2348091C13488604D
:1006A2008093C1348091C0348F7E8093C03440E304
:1006B20055E760E070E089E893E30E94922F85E0BD
:1006C2008093BF348091573290915832009781F0D5
:1006D2009827892798279C0121503109A8EEB3E079
:1006E2000E947D50AB01BC0187EA93E30E94922FE6
:1006F2008091BD3411C086E08093BF34F9CF85E08C
:100702008093BF348091573290915832009781F391
:10071200E7CE1092BD34ECCF0F900F90DF91CF91C6
:0A0722001F910F91FF90EF900895D2
:10072C002F923F924F925F926F927F928F929F92F5
:10073C00AF92BF92CF92DF92EF92FF920F931F93E3
:10074C00CF93DF93CDB7DEB7C455D109CDBFDEBF94
:10075C008B0169017A01813411F08435E9F424E0CC
:10076C0030E0AE014F5F5F4FC701B6010E94DC3A2B
:10077C00811147C28A8126968FAF2697E091AD34BE
:10078C00F091AE34309709F43CC2AE014B5B5F4F35
:10079C0061E08981099535C28234E9F424E030E0C6
:1007AC00AE014F5F5F4FC701B6010E94DC3A811169
:1007BC0028C28A8126968FAF2697E091AD34F091AE
:1007CC00AE34309709F41DC2AE014B5B5F4F62E053
:1007DC008981099516C2833409F077C02CE030E08A
:1007EC00AE014B5B5F4FC701B6010E94DC3A811131
:1007FC0008C22F968FAD2F9788230CF441C0482F39
:10080C00082E000C550B2E962FAD2E973BE0230394
:10081C00F0011124E857F04D9185349FF001359F7C
:10082C00F00D1124E857F04D918791E09087619677
:10083C002EAD3FAD61972850310926833783209127
:10084C00AF343091B034B9016F5F7F4F29F06093B2
:10085C00AF347093B03406C02E5F3F4F2093AF344B
:10086C003093B0349BE0949FF001959FF00D1124D0
:10087C00E857F04D2091AF343091B0342483358358
:10088C00898382E090E08A839B8329968EAD9FAD0D
:10089C0029978C839D832D968CAD9DADAEADBFAD50
:1008AC002D978E839F83A887B987E091AD34F09103
:1008BC00AE34309709F4A5C1AE014F5F5F4F64E0D1
:1008CC002E968FAD2E9709959CC1843411F08B34E4
:1008DC0071F524E030E0AE014F5F5F4FC701B60108
:1008EC000E94DC3A81118DC1898126968FAF2697A3
:1008FC009A8127969FAF279791110CC02BE082020B
:10090C00F0011124E857F04D2B813C81285031091E
:10091C0026833783E091AD34F091AE34309709F4EF
:10092C0070C1AE014B5B5F4F65E009956AC18A34BB
:10093C00E1F424E430E0AE014F5F5F4FC701B60134
:10094C000E94DC3A81115DC1E091AB34F091AC3482
:10095C00309709F456C125964CAD5DAD6EAD7FADAB
:10096C002597CE01019609954CC1863451F08834F7
:10097C0069F08D3409F0DDC00F2EF6E0AF2EF02DAE
:10098C0009C00F2EF6E0AF2EF02D04C00F2EF9E0AB
:10099C00AF2EF02D20E130E0AE014B5B5F4FC70175
:1009AC00B6010E94DC3A81112CC16296BFAC6297F1
:1009BC0065962EAD3FAD65976B2D0B2C000C770B10
:1009CC008B2D9BE08902F0011124E857F04D128623
:1009DC002F968EAD9FAD2F976196AEADBFAD619743
:1009EC0029964EAD5FAD299749875A872D964CAC09
:1009FC005DAC6EAC7FAC2D974B865C866D867E862F
:100A0C00448155812417350709F0FBC018161906C7
:100A1C000CF07DC04C018017910708F078C000974E
:100A2C0009F4EFC02BE0269FF001279FF00D112455
:100A3C00E857F04D20813181232B09F4E2C02BE0E3
:100A4C00269FF001279FF00D1124E857F04D2281CD
:100A5C003381232B09F4D5C02BE0269FF001279F6F
:100A6C00F00D1124E857F04D2085213009F0C9C054
:100A7C00CA0EDB1EE11CF11C8D839E832BE0269F8E
:100A8C00C001279F900D1124FC01E857F04D3F0148
:100A9C002F01F2E04F0E511C130128E0220E311CE5
:100AAC00F201008111818016910608F48401F30192
:100ABC00408151819801C701B6010E94DC3A811135
:100ACC00A0C0F3018081918189839A830B831C835D
:100ADC008D819E81801B910B8D839E83E091AD3423
:100AEC00F091AE34309731F0AE014F5F5F4F6A2D0D
:100AFC008B2D0995C00ED11EE11CF11CF1018081DA
:100B0C00882309F47EC0801A910A51F67AC08B832F
:100B1C009C8319821A82E091AD34F091AE343097F7
:100B2C0009F46FC0AE014F5F5F4F6A2D8B2D099595
:100B3C0068C0853431F0873431F08C3481F517E09E
:100B4C0003C017E001C018E028E030E0AE014F5FB1
:100B5C005F4FC701B6010E94DC3A811152C08981F6
:100B6C004D815E812B813C8127962EAF3FAF27971D
:100B7C002BE08202F0011124E857F04D24813581DD
:100B8C0042175307F1F5E091AD34F091AE34309744
:100B9C00C1F1AE014B5B5F4F612F099532C08235BD
:100BAC0081F524E130E0AE014F5F5F4FC701B60124
:100BBC000E94DC3A811125C04D815E816F81788560
:100BCC008091633490916434A0916534B091663413
:100BDC00481759076A077B0781F4E091A934F09113
:100BEC00AA34309751F029853A854B855C8569810B
:100BFC007A818B819C81098909951092A934109274
:100C0C00AA34CC5ADF4FCDBFDEBFDF91CF911F91FD
:100C1C000F91FF90EF90DF90CF90BF90AF909F908F
:100C2C008F907F906F905F904F903F902F90089592
:100C3C00CF92DF92EF92FF920F931F93CF93DF939C
:100C4C00CDB7DEB72997CDBFDEBF8C011092BF3474
:100C5C0019828091C03482FD08C08091C03483FD1C
:100C6C0004C08091C03484FF05C01092BD34C8010B
:100C7C000E94FF4EF80186859785892B19F4809187
:100C8C00BD34CAC18091BD34823039F0833009F44F
:100C9C0081C0813009F0A9C1ABC18091C03480FD05
:100CAC0070C0C0905732D090583281EB93E30E94C1
:100CBC009D4D7801F8E0EF0EF11C41E050E0BE01D3
:100CCC006F5F7F4FC7010E9443389C019981907FD1
:100CDC00903209F046C08E010E5F1F4F84E0F80180
:100CEC0011928A95E9F741E050E0B801C7010E94E2
:100CFC00B83741E050E0BE016D5F7F4FC7010E94E5
:100D0C00B837B8016E5F7F4F41E050E0C7010E94D9
:100D1C00B83741E050E0BE016B5F7F4FC7010E94C6
:100D2C00B8378D81882309F466C170C18091C234B3
:100D3C0080628093C2348091C1348F7E8093C134A1
:100D4C00960121503109A8EEB3E00E947D50AB0111
:100D5C00BC0187EA93E30E94922F84E08093BF3416
:100D6C0047C182E08093BF3489818093BE34209345
:100D7C008534309386341092BD34C8010E94FF4EE6
:100D8C0037C11092BD34C8010E94FF4E81E08093A0
:100D9C00BF342EC17801F8E0EF0EF11C41E050E0B9
:100DAC00BE016F5F7F4FC7010E94433889818295D6
:100DBC008F708930C1F138F4833009F4DCC0843091
:100DCC0009F4DDC015C18B3009F485C08D3009F0F4
:100DDC000FC18091C13484FF0BC18091C03482FD5E
:100DEC0007C18DE993E30E949D4D1A821B8241E05D
:100DFC0050E0BE016E5F7F4FC7010E94B8378091F3
:100E0C00C1348F7E8093C134809157329091583287
:100E1C00892B29F08091C23480628093C234C7013F
:100E2C000E94C253E5C08091C13482FFE1C0809121
:100E3C00C03483FDDDC083E993E30E949D4DBE0168
:100E4C006E5F7F4F88E0FB0111928A95E9F741E0D4
:100E5C0050E0C7010E94B83741E050E0BE016D5F21
:100E6C007F4FC7010E94B83741E050E0BE01695F77
:100E7C007F4FC7010E94B83741E050E0BE01685F68
:100E8C007F4FC7010E94B837988580910B33981318
:100E9C0012C09F8180910C3398130FC041E050E039
:100EAC00BE01675F7F4FC7010E94B83789858038C4
:100EBC0031F013E005C010E003C010E001C010E0F9
:100ECC008091C1348B7F8093C134C7010E94C2537F
:100EDC001093BD348DC08091C13483FF89C0809143
:100EEC00C03484FD85C089E893E30E949D4DBE010A
:100EFC006E5F7F4F84E0FB0111928A95E9F741E028
:100F0C0050E0C7010E94B83741E050E0BE016D5F70
:100F1C007F4FC7010E94B8378B818230E1F441E0EA
:100F2C0050E0BE016C5F7F4FC7010E94B83741E0B3
:100F3C0050E0BE016B5F7F4FC7010E94B8379D81A7
:100F4C0080912733981309C09C818091283398177E
:100F5C0031F010E005C010E003C010E001C013E058
:100F6C008091C134877F8093C134C7010E94C253E2
:100F7C001093BD343DC0C8010E94551739C08E0175
:100F8C000E5F1F4F84E0F80111928A95E9F741E05A
:100F9C0050E0B801C7010E94B83741E050E0BE01F3
:100FAC006D5F7F4FC7010E94B83741E050E0BE0132
:100FBC006B5F7F4FC7010E94B837B8016E5F7F4FE0
:100FCC0041E050E0C7010E94B8379C818091FF320C
:100FDC0098130EC09D8180910033981309C08091A5
:100FEC00C1348F7D8093C13403C087E08093BD34BE
:100FFC008091BD3411C0DC24CD24DC2483E08093AB
:10100C00BD34C114D10409F4A8CE90CE1092BD34D5
:10101C0083E08093BF34ECCF2996CDBFDEBFDF9148
:10102C00CF911F910F91FF90EF90DF90CF9008958B
:10103C00ABE0B0E0E4E2F8E00C94BB4B6C017B015C
:10104C008A01FC0116821782838181FFCCC1CE01FB
:10105C0001963C01F6019381F70193FD859193FF75
:10106C0081917F01882309F4BAC1853239F493FD4B
:10107C00859193FF81917F01853229F4B60190E02F
:10108C000E94053EE7CF912C212C312CFFE1F3156A
:10109C00D8F08B3279F038F4803279F08332A1F4C5
:1010AC00232D20611DC08D3261F0803369F4232D16
:1010BC00216016C0832D8260382EE32DE4603E2E15
:1010CC002AC0F32DF8601DC037FC2DC020ED280F71
:1010DC002A3040F08E32B9F436FC81C1232D2064C5
:1010EC00322E19C036FE06C08AE0989E200D1124BF
:1010FC00922E11C0EAE02E9E200D1124222EF32DEB
:10110C00F0623F2E08C08C3621F4832D8068382E77
:10111C0002C0883641F4F70193FD859193FF8191CC
:10112C007F018111B3CF982F9F7D9554933028F474
:10113C000C5F1F4F9FE399830DC0833631F08337CB
:10114C0071F0833509F059C021C0F8018081898381
:10115C000E5F1F4F88248394912C530113C02801D8
:10116C00F2E04F0E511CF801A080B18036FE03C096
:10117C00692D70E002C06FEF7FEFC5010E94325203
:10118C004C018201F32DFF773F2E16C0280122E07F
:10119C00420E511CF801A080B18036FE03C0692DAF
:1011AC0070E002C06FEF7FEFC5010E9427524C0127
:1011BC00F32DF0683F2E820133FC1BC0822D90E092
:1011CC0088169906B0F4B60180E290E00E94053EC4
:1011DC002A94F4CFF50137FC859137FE81915F019C
:1011EC00B60190E00E94053E21102A9421E0821A5B
:1011FC0091088114910471F7E8C0843611F0893696
:10120C0041F5F80137FE07C06081718182819381BD
:10121C000C5F1F4F08C060817181072E000C880B7A
:10122C00990B0E5F1F4FF32DFF763F2E97FF09C0D2
:10123C0090958095709561957F4F8F4F9F4FF0687B
:10124C003F2E2AE030E0A3010E947D2E882E8618C6
:10125C0045C0853731F4232D2F7EB22E2AE030E0A5
:10126C0025C0932D997FB92E8F36C1F018F488358F
:10127C0079F0B5C0803719F0883721F0B0C0E92F6C
:10128C00E061BE2EB4FE0DC0FB2DF460BF2E09C074
:10129C0034FE0AC0292F2660B22E06C028E030E0AA
:1012AC0005C020E130E002C020E132E0F801B7FED9
:1012BC0007C060817181828193810C5F1F4F06C0D2
:1012CC006081718180E090E00E5F1F4FA3010E944E
:1012DC007D2E882E8618FB2DFF773F2E36FE0DC0F7
:1012EC00232D2E7FA22E891458F434FE0BC032FC11
:1012FC0009C0832D8E7EA82E05C0B82CA32C03C04C
:10130C00B82C01C0B92CA4FE0FC0FE01E80DF11DD4
:10131C008081803321F49A2D997EA92E09C0A2FEDA
:10132C0006C0B394B39404C08A2D867809F0B394A4
:10133C00A3FC11C0A0FE06C0B21488F4280C922C99
:10134C009B180EC0B21460F4B60180E290E00E94CB
:10135C00053EB394F7CFB21418F42B1802C0982C96
:10136C00212CA4FE10C0B60180E390E00E94053E43
:10137C00A2FE17C0A1FC03C088E790E002C088E57C
:10138C0090E0B6010CC08A2D867859F0A1FE02C0FF
:10139C008BE201C080E2A7FC8DE2B60190E00E94D6
:1013AC00053E891438F4B60180E390E00E94053EB6
:1013BC009A94F7CF8A94F301E80DF11D8081B60160
:1013CC0090E00E94053E8110F5CF222009F442CE18
:1013DC00B60180E290E00E94053E2A94F6CFF60119
:1013EC008681978102C08FEF9FEF2B96E2E10C94E0
:0213FC00044C9F
:1013FE00CF92DF92EF92FF920F931F930E94BC4AFF
:10140E0084E0809302040E94F8300E94754D8CEAAD
:10141E0092E30E94D9548CEA92E30E9429550E94CD
:10142E00E150811105C080910E28846080930E28B2
:10143E008CEA92E30E94533980937529882329F010
:10144E0080910E28846080930E288CEA92E30E948D
:10145E00D9548CEA92E30E94F2530E942E450E94C8
:10146E00E13648EE53E060E070E08BEB93E30E94D0
:10147E00922F40E257E466E170E0C12CD12C760148
:10148E0000E010E0980186B38074080F111D211D35
:10149E00311D86B38072C80ED11CE11CF11C415067
:1014AE0051096109710979F7003913422B40310551
:1014BE0008F0BEC080E9C81683E2D8068BE0E806C5
:1014CE00F10408F06CC089E0E9E1F3E8ACE7B8E2BA
:1014DE0001900D928A95E1F78AE0E2E2F3E8ADE938
:1014EE00B8E201900D928A95E1F71F9282E08F93F8
:1014FE008CE293E89F938F9382EF98E29F938F9362
:10150E000E944148EAE3F4E30F2EFAEFCF2ED12CDE
:10151E00E12CF12CF02DC082D182E282F382C482C2
:10152E00D582E682F782CF010E947514E1E3F4E3DF
:10153E00C082D182E282F382C482D582E682F782B1
:10154E00CF010E947514E8E2F4E310821182128238
:10155E001382C12CD12C7601C394C482D582E6822B
:10156E00F782CF010E947514EFE1F4E3108211822D
:10157E0012821382C482D582E682F782CF010E9444
:10158E00751480910E2888608F7D806480930E285C
:10159E000F900F900F900F900F900F90AAC0EAE34C
:1015AE00F4E384EF91E0A0E0B0E080839183A28326
:1015BE00B38384839583A683B783CF010E9475146A
:1015CE00E1E3F4E31082118212821382C12CD12C3A
:1015DE007601C394C482D582E682F782CF010E943F
:1015EE007514E8E2F4E31082118212821382C4822F
:1015FE00D582E682F782CF010E947514EFE1F4E303
:10160E001082118212821382C482D582E682F78200
:10161E00CF010E94751480910E28877F80628F7B88
:10162E0080930E2860E084E295E50E94074944C04D
:10163E00EAE3F4E38AEF90E0A0E0B0E080839183E8
:10164E00A283B38384839583A683B783CF010E943D
:10165E007514E1E3F4E31082118212821382C12C1D
:10166E00D12C7601C394C482D582E682F782CF0153
:10167E000E947514E8E2F4E3108211821282138242
:10168E00C482D582E682F782CF010E947514EFE103
:10169E00F4E31082118212821382C482D582E68212
:1016AE00F782CF010E94751480910E2888608F7D7D
:1016BE008F7B80930E281DC00E94F8308FE498E235
:1016CE009F938F938BE792E89F938F9381E199E29B
:1016DE009F938F930E9441486DE975E281E199E2F3
:1016EE000E94014E0F900F900F900F900F900F9041
:1016FE0012C061E084E295E50E9407498CEA92E30C
:10170E000E94DD5244E650E060E070E085EC93E329
:10171E000E94922FD1CF1F910F91FF90EF90DF90EB
:04172E00CF900895BB
:10173200AF92BF92CF92DF92EF92FF920F931F93DD
:10174200CF93DF93CDB7DEB72697CDBFDEBF7C0147
:101752006B0160915F34709160348091613490913B
:101762006234611571058105910509F4FDC0890195
:101772005A0122E030E0A7010E94DC3A8111F6C052
:1017820080915F3490916034A0916134B091623461
:10179200BC01CD016E5F7F4F8F4F9F4F60935F34CF
:1017A20070936034809361349093623422E030E02D
:1017B200AE014B5F5F4F0E94DC3A8111D9C080912C
:1017C2005F3490916034A0916134B0916234BC0175
:1017D200CD016E5F7F4F8F4F9F4F60935F34709349
:1017E2006034809361349093623422E030E0AE0141
:1017F2004F5F5F4F0E94DC3A8111BCC080915F3421
:1018020090916034A0916134B0916234BC01CD01F9
:101812006E5F7F4F8F4F9F4F60935F347093603442
:10182200809361349093623422E030E0AE014D5FE8
:101832005F4F0E94DC3A81119FC080915F3490918A
:101842006034A0916134B0916234BC01CD016E5F0D
:101852007F4F8F4F9F4F60935F34709360348093BC
:10186200613490936234F70120813181322723273A
:101872003227208331832D813E813227232732274D
:10188200F801E05CFF4F2083318349815A8154275C
:101892004527542749835A834B815C815427452726
:1018A20054274B835C83220F331FA8010E94DC3A2A
:1018B200811164C0F801E05CFF4F20813181220F69
:1018C200331F80915F3490916034A0916134B09164
:1018D2006234BC01CD01620F731F811D911D6093A3
:1018E2005F347093603480936134909362342981C1
:1018F2003A81A6010E94DC3A811142C029813A81D3
:1019020080915F3490916034A0916134B0916234DF
:10191200BC01CD01620F731F811D911D60935F3465
:101922007093603480936134909362342B813C8154
:10193200A5010E94DC3A811125C02B813C81409196
:101942005F34509160346091613470916234420F1F
:10195200531F611D711D40935F3450936034609337
:101962006134709362340FC084EF0DC084EF0BC0FA
:1019720084EF09C084EF07C084EF05C084EF03C081
:1019820084EF01C084EF2696CDBFDEBFDF91CF91F9
:101992001F910F91FF90EF90DF90CF90BF90AF908B
:0219A2000895A6
:1019A400CF92DF92EF92FF92CF93DF93EB018B31D3
:1019B40009F4EEC020F4893009F4F2C021C18C325C
:1019C40021F0823309F4CBC01BC18881813009F036
:1019D4005FC08091B934882309F185E793E30E94BD
:1019E4009D4D1092B934EAE3F4E38AEF90E0A0E06D
:1019F400B0E080839183A283B38384839583A68399
:101A0400B783CF010E94751448EE53E060E070E0A4
:101A14008BE693E30E94922F0E94585180910E28E6
:101A24008A708830C1F4E1E3F4E38AEF90E0A0E047
:101A3400B0E080839183A283B38384839583A68358
:101A4400B783CF010E94751480910E288260877B32
:101A5400806180930E2880910E2885FF16C08F7DAB
:101A640080930E28EAE3F4E388EE93E0A0E0B0E08C
:101A740080839183A283B38384839583A683B7836E
:101A840083E08087CF010E9475140E94144E59C0D0
:101A9400811157C0E8E2F4E31082118212821382AA
:101AA400C12CD12C7601C394C482D582E682F782FC
:101AB400CF010E947514EFE1F4E3108211821282C7
:101AC4001382C482D582E682F782CF010E94751404
:101AD40080910E2886FD22C0E1E3F4E31082118296
:101AE4001282138281E090E0A0E0B0E084839583C9
:101AF400A683B783CF010E947514EAE3F4E38AEF67
:101B040090E0A0E0B0E080839183A283B3838483D8
:101B14009583A683B783CF010E94751480910E2804
:101B24008D7E886080930E2842E350E060E070E090
:101B340087E593E30E94922F80910E288160809321
:101B44000E28E0917934F0917A34309709F458C032
:101B540080910E2880FD54C08881099551C08BE185
:101B640098E20E94A24B81114BC080910E2880FF05
:101B740009C087E593E30E949D4D80910E288E7FD6
:101B840080930E2880910E288B7F80930E2838C076
:101B940088819981892BA1F1CB010E94A04330C097
:101BA400FB01ED59FF4F808181112AC0319780815B
:101BB4001F928F938EEB9CE79F938F9382EF98E213
:101BC4009F938F930E944148BE018CE798E20E9444
:101BD4004154BE016F5D7F4F8DE998E20E944154EC
:101BE40081E08093B93440E050E0BA0185E793E3A3
:101BF4000E94922F0F900F900F900F900F900F90C4
:0E1C0400DF91CF91FF90EF90DF90CF90089589
:101C1200CF92DF92EF92FF92CF93DF9380910928C8
:101C2200982F957051F4E091E632F091E73269E332
:101C320073E383E493E309951FC083FD1DC0E09124
:101C4200F232F091F3320995811116C08091092880
:101C520081FD12C040E157E260E070E083E493E36B
:101C62000E94922F80910E288F7780930E28809168
:101C7200092888608093092880910E2881FD0BC075
:101C8200E091F232F091F3320995882309F4E3C02E
:101C92000E949855E0C00E949555DC015096ED9146
:101CA200FC9151978081082E000C990B0E941353CE
:101CB200C82F0E94334A6B017C010E946453672B38
:101CC200682B692B09F1E091F232F091F332099518
:101CD2008823D1F080910E28806880930E2880910D
:101CE200473490914834A0914934B0914A34C8168F
:101CF200D906EA06FB0641F0C0924734D092483436
:101D0200E0924934F0924A34C23009F4A4C030F06F
:101D1200C33009F1C43009F099C09DC00E94D24578
:101D220060910A2870910B2880910C2890910D28BF
:101D3200E091E832F091E93209958F3F31F48091D8
:101D42000E28846080930E2886C080910E288061C0
:101D520080930E2880C0E091F432F091F53209951B
:101D6200882331F0E091EA32F091EB32099573C0A9
:101D72000E949555EC010E941E06873071F00E9468
:101D82009E55823019F0843021F007C00E94A1557F
:101D920004C00E9464530E946D53CE010E94E10070
:101DA2000E949E550E949555FC01C484D5840E94D0
:101DB2009555DC011896ED90FC9019970E94955567
:101DC200DC015096ED91FC915197808120E030E04A
:101DD200A601B701082E000C990B0E949D33E091D9
:101DE200F232F091F33209958823A9F180910E28FD
:101DF2008F7E8B7F80930E2883E493E30E949D4D18
:101E020089E393E30E949D4D809109288B7F877F10
:101E12008093092884FF05C0E091EC32F091ED3205
:101E220009950E94334A61317E40810591059CF0FB
:101E3200E091F032F091F1320995E889F9898081D7
:101E4200082E000C990B0E94E34605C080910E28D3
:101E5200846080930E2864EF71E080E090E0DF916F
:0C1E6200CF91FF90EF90DF90CF9008959B
:101E6E00CF92DF92EF92FF920E9464536B017C013E
:101E7E000E945B54882309F481C02091673430910D
:101E8E0068344091693450916A34C701B6010E949A
:101E9E00C25516161706180619060CF080C0C09209
:101EAE006734D0926834E0926934F0926A34E5E691
:101EBE00F0E380E5DF011D928A95E9F78FE498E261
:101ECE009F938F9384E592E89F938F93FF93EF9365
:101EDE000E94414880910E280F900F900F900F9006
:101EEE000F900F9081FFC9C00E9414417C010E9487
:101EFE008755482FE92FC701FF2024F488279927FB
:101F0E008E199F0924E630E0B9010E94D94D9F93A6
:101F1E008F93C701B9010E94D94D7F936F93EF93B1
:101F2E004F938FE592E89F938F9380E39DE29F936B
:101F3E008F930E9441482DB73EB7265F3F4F2DBF6E
:101F4E003EBF181619065CF58091D634882321F011
:101F5E0081508093D63423C0E8E2F4E384EF91E01D
:101F6E00A0E0B0E080839183A283B38384839583C2
:101F7E00A683B783CF010E94751411C0E8E2F4E383
:101F8E00108211821282138281E090E0A0E0B0E014
:101F9E0084839583A683B783CF010E9475148091A5
:101FAE000E2883FD42C081FF11C0EAE3F4E381E015
:101FBE0090E0A0E0B0E080839183A283B38314828B
:101FCE00158216821782CF010E94751480910E28F9
:101FDE0084FD2BC00E945B54882391F0E1E3F4E36F
:101FEE0081E090E0A0E0B0E080839183A283B38390
:101FFE001482158216821782CF010E94751415C0A5
:10200E0080910E2888238CF4E1E3F4E38AEF90E0CC
:10201E00A0E0B0E080839183A283B3838483958311
:10202E00A683B783CF010E94751480910E2882FF7C
:10203E0012C0EFE1F4E381E090E0A0E0B0E0808335
:10204E009183A283B3831482158216821782CF01E5
:10205E000E94751417C0EFE1F4E310821182128210
:10206E00138281E090E0A0E0B0E084839583A683A4
:10207E00B783CF010E94751405C080910E2883FF8F
:10208E00A5CFD3CF64E670E080E090E0FF90EF90B4
:06209E00DF90CF900895D1
:1020A4004F925F926F927F928F929F92AF92BF9264
:1020B400FF920F931F93CF93DF9300D000D0CDB73F
:1020C400DEB7F82EB62E29013A0120E030E0A9014E
:1020D4006CE070E0CB010E94193A20E030E0A901E5
:1020E4006CE870E180E090E00E94193A20E030E072
:1020F400A9016CEA77E082E090E00E94193A21E0BD
:1021040030E040E050E068E171E180E090E00E945E
:10211400CC388111BFC020E034E040E050E060E002
:1021240074E180E090E00E94CC388111B5C064E194
:1021340070E180E090E00E9422469923C4F76CEBA2
:1021440077E082E090E00E94224660FD19C00FEC27
:1021540017E061E070E080E090E00E944F4A6CE09C
:1021640070E0CB010E9422466E39704D8D4A904139
:1021740021F00150110968F703C0012B09F48EC046
:10218400FF2079F02DE735ED4CE15CE36CEA77E074
:1021940082E090E00E94193A812C912C540193948E
:1021A4000DC0BB2039F0812C912C5401689487F820
:1021B400939404C0812C912C54019394A301920113
:1021C4006CE870E180E090E00E94193A0E9442229B
:1021D400DC01CB019F70AA27BB27803A9340A1055D
:1021E400B10510F0689481F8A501940160EA74E1E6
:1021F40080E090E00E94193AAE014F5F5F4F60EAC1
:1022040074E180E090E00E94974E811109C08981B9
:102214009A81AB81BC8188169906AA06BB0621F770
:1022240021E63FE242E55FEE6CE070E0CB010E9404
:10223400193A00ED17E062E070E080E090E00E945F
:102244004F4AF11017C06CE870E180E090E00E9402
:1022540022466633764283459240B9F420E030E06A
:10226400A9016CE870E180E090E00E94193A0E94B4
:10227400A14917C06CEA77E082E090E00E94224610
:10228400633C714C8D45974D59F00150110999F6F5
:1022940080E007C080E005C080E003C080E001C0AA
:1022A40081E02496CDBFDEBFDF91CF911F910F91C6
:1022B400FF90BF90AF909F908F907F906F905F90B2
:0422C4004F9008959A
:1022C800EF92FF920F931F93CF93DF93CDB7DEB7B3
:1022D800C854D109CDBFDEBF88230CF4E3C0211553
:1022E800310509F4E1C0E82E082E000CFF089BE038
:1022F8008902D0011124A857B04D18969C919923B2
:1023080009F4D4C0D901623009F0A8C087300CF0B4
:10231800CFC09BE09E9DF0019F9DF00D1124E857D2
:10232800F04D918590FFC6C04130E1F42D913C916C
:10233800232B61F08BE08E9DF0018F9DF00D112411
:10234800E857F04D9260918780E0B9C08BE08E9D90
:10235800F0018F9DF00D1124E857F04D9D7F918776
:1023680080E0ADC04330E1F42D913C91232B61F026
:102378008BE08E9DF0018F9DF00D1124E857F04DF4
:102388009061918780E09BC08BE08E9DF0018F9DCE
:10239800F00D1124E857F04D9F7E918780E08FC0A3
:1023A8004430E1F42D913C91232B61F08BE08E9D1C
:1023B800F0018F9DF00D1124E857F04D906491873E
:1023C80080E07DC08BE08E9DF0018F9DF00D112483
:1023D800E857F04D9F7B918780E071C0423009F04B
:1023E8006BC00034110508F069C089838BE08E9DAD
:1023F800F0018F9DF00D1124E857F04D84819581EF
:102408008B839C8382E08A83A80160E070E04D831F
:102418005E836F83788780E4F901DE011996019065
:102428000D928A95E1F728E430E0AE014F5F5F4FE7
:1024380061E582E00E944B4D8D3F61F428E430E075
:10244800AE014F5F5F4F61ED82E00E944B4D8111FD
:1024580003C035C080E033C082EF31C04E838D8326
:102468008D919D910D90BC91A02D89839A83AB830A
:10247800BC838BE08E9DF0018F9DF00D1124E857F1
:10248800F04D848195818F83988728E030E0AE01F4
:102498004F5F5F4F6FE482E00E944B4D882379F0D5
:1024A80087EF0DC08AEF0BC08AEF09C08AEF07C01B
:1024B8008AEF05C08AEF03C08AEF01C08AEFC85BC4
:1024C800DF4FCDBFDEBFDF91CF911F910F91FF90FE
:0424D800EF900895E4
:1024DC004F4B0D00646562756720706172616D65AC
:1024EC00746572206D7573742062652062657477F3
:1024FC0065656E203020284C656173742920616EEF
:10250C0064203420284D6F737429200D00342E3133
:10251C002E30007625730D0A0400312E302E31003A
:10252C0025730D0A0400556E6B6E6F776E2E0D0AB7
:10253C0004004572726F722067657474696E67204F
:10254C005468696E67204E616D652E0D0A04002C6F
:10255C00002564004F4B0D0A04004572726F722EF9
:10256C002057692D466920636F6D6D616E6420661E
:10257C006F726D61742069732077696669203C7392
:10258C007369643E5B2C3C706173733E2C5B6175AC
:10259C007468547970655D5D0D0A04002D2D2D2D28
:1025AC002D2D2D2D2D2D2D2D2D2D2D2D2D2D2D2D4F
:1025BC002D2D2D2D2D2D2D2D2D2D2D2D2D2D2D2D3F
:1025CC002D2D2D2D2D2D2D2D0D0A556E6B6E6F77FE
:1025DC006E20636F6D6D616E642E204C6973742078
:1025EC006F6620617661696C61626C6520636F6DEA
:1025FC006D616E64733A0D0A72657365740D0A64CD
:10260C0065766963650D0A7468696E670D0A726593
:10261C00636F6E6E6563740D0A76657273696F6EA7
:10262C000D0A636C695F76657273696F6E0D0A775C
:10263C00696669203C737369643E5B2C3C70617302
:10264C00733E2C5B61757468547970655D5D0D0A21
:10265C0064656275670D0A2D2D2D2D2D2D2D2D2DBB
:10266C002D2D2D2D2D2D2D2D2D2D2D2D2D2D2D2D8E
:10267C002D2D2D2D2D2D2D2D2D2D2D2D2D2D2D2D7E
:10268C002D2D2D0D0A04000D0A436F6D6D616E64C6
:10269C0020746F6F206C6F6E670D007265736574BC
:1026AC00007265636F6E6E656374007769666900AE
:1026BC007468696E670064657669636500636C694C
:1026CC005F76657273696F6E0076657273696F6E93
:0726DC0000646562756700F0
:0126E30001F5
:1026E400CF92DF92EF92FF921F93CF93DF93CDB7F8
:1026F400DEB72697CDBFDEBF1B821C821D821E82E1
:102704006BE575E60E94385589839A83009709F42E
:10271400C7C09E012F5F3F4F790110E0F7018193FD
:1027240091937F011F5F6BE575E680E090E00E9466
:102734003855009719F0133089F7C3C0E980FA803F
:10274400E114F10409F4B5C08B819C81009729F44C
:102754008D819E81892B81F415C02D813E81232B8F
:1027640059F40E948B559EEF980F923008F498C04C
:10277400813041F012E016C08D819E810E948B55FC
:10278400182F97C040E250E0B7018CE798E20E940E
:102794008C5010929D2881E390E08093F2289093CE
:1027A400F32824C040E250E0B7018CE798E20E948D
:1027B4008C506B817C8140E450E08DE998E20E946A
:1027C4008C501F921F938DE595E69F938F9382EF14
:1027D40098E29F938F930E9441480F900F900F901F
:1027E4000F900F900F90112309F45AC080E695E6DC
:1027F4009F938F930E94A24C0E945B540F900F9062
:10280400882321F00E9495550E94FF4E80910E2846
:1028140088233CF48F7780930E280E9495550E945C
:102824005B3A0E94A950E8E2F4E31082118212821A
:102834001382C12CD12C7601C394C482D582E68242
:10284400F782CF010E947514EFE1F4E31082118244
:1028540012821382C482D582E682F782CF010E945B
:102864007514E1E3F4E31082118212821382C482AC
:10287400D582E682F782CF010E947514EAE3F4E37D
:102884008AEF90E0A0E0B0E080839183A283B383D9
:1028940084839583A683B783CF010E94751418C0DF
:1028A40086E695E69F938F930E94A24C0F900F901B
:1028B4000FC0113009F466CF98F3143008F472CFC6
:1028C400EFCFE980FA80E114F10409F03DCF6ACF3B
:1028D4002696CDBFDEBFDF91CF911F91FF90EF9081
:0628E400DF90CF90089583
:1028EA00CF93DF93EC018885813009F47DC008F429
:1028FA00B6C08230F1F1833009F0EBC08BE094E38B
:10290A000E949D4D85E194E30E949D4D8C819D819D
:10291A00AE81BF81892B8A2B8B2B21F488E080938F
:10292A006604D7C088819981AA81BB81892B8A2BA9
:10293A008B2B21F488E080936504CBC0A5E1B4E336
:10294A001296CD93DC931397EBE0F4E3C283D3831F
:10295A0084EF9FE48D939C93119784EE9FE4808388
:10296A009183488159816A817B81CD010E94922F8E
:10297A00B0C087EF93E30E949D4D81E094E30E94EB
:10298A009D4D8C819D81AE81BF81892B8A2B8B2B9A
:10299A0021F484E0809366049CC088819981AA818D
:1029AA00BB81892B8A2B8B2B21F484E080936504CD
:1029BA0090C0A1E0B4E31296CD93DC931397E7EFAE
:1029CA00F3E3C283D38384ED9FE48D939C931197A1
:1029DA0084EC9FE480839183488159816A817B8159
:1029EA00CD010E94922F75C083EE93E30E949D4D04
:1029FA008DEE93E30E949D4D8C819D81AE81BF81B6
:102A0A00892B8A2B8B2B21F482E08093660461C088
:102A1A0088819981AA81BB81892B8A2B8B2B21F4EE
:102A2A0082E08093650455C0ADEEB3E31296CD9370
:102A3A00DC931397E3EEF3E3C283D38384EB9FE43F
:102A4A008D939C93119784EA9FE4808391834881B4
:102A5A0059816A817B81CD010E94922F3AC08FEC05
:102A6A0093E30E949D4D89ED93E30E949D4D8C81D5
:102A7A009D81AE81BF81892B8A2B8B2B21F481E02A
:102A8A008093660426C088819981AA81BB81892B9B
:102A9A008A2B8B2B21F481E0809365041AC0A9ED5F
:102AAA00B3E31296CD93DC931397EFECF3E3C2836F
:102ABA00D38384E99FE48D939C93119784E89FE4E0
:102ACA0080839183488159816A817B81CD010E94EB
:082ADA00922FDF91CF910895C6
:102AE2002F923F924F925F926F927F928F929F921C
:102AF200AF92BF92CF92DF92EF92FF920F931F930A
:102B0200CF93DF93CDB7DEB72C97CDBFDEBF962F25
:102B12009F779A8389830115110539F0F701389659
:102B2200EC0DFD1DEB83FC8304C0F9013896EB83A9
:102B3200FC83EB81FC81ED33F64008F0ABC036013B
:102B4200680149015A01162F082F0E94D44B8111A6
:102B5200A3C02B813C81C901A0E0B0E0DC01992730
:102B62008827802B9C01AD01312B2D833E834F831F
:102B720058876CE870E180E090E00E94193A22E008
:102B820030E040E050E068E770E180E090E00E94D1
:102B9200193A19861A861B861C8607EE13E0AE01C7
:102BA2004B5F5F4F68E770E180E090E00E94974ED4
:102BB2000E94B655882321F00E94704B8FEF6DC0A2
:102BC2008D8181FD0AC0AE01475F5F4F60E074E016
:102BD20085E190E00E94974E0DC0053F81E0180705
:102BE20030F461E070E080E090E00E944F4A0150D2
:102BF2001109A8F60E94B655811109C029843A84A8
:102C02004B845C84211431044104510421F40E9458
:102C1200704B8DEF42C028E030E0AE014F5F5F4F56
:102C2200C201B1010E94782388E0280E311C411CA8
:102C3200511CA114B10431F09401A501C201B101EA
:102C42000E947823C114D10451F0C201B101660D72
:102C5200771D811D911D9701A6010E947823898508
:102C62009A85AB85BC85880F991FAA1FBB1F880F49
:102C7200991FAA1FBB1F9C01AD0122606CE670E187
:102C820080E090E00E94193A0E94704B0E94B65573
:102C9200819503C08FEF01C08FEF2C96CDBFDEBFB1
:102CA200DF91CF911F910F91FF90EF90DF90CF9026
:102CB200BF90AF909F908F907F906F905F904F905A
:062CC2003F902F900895E1
:102CC8008F929F92AF92BF92CF92DF92EF92FF9234
:102CD8000F931F93CF93DF938C01DC011696CD9051
:102CE800DD90ED90FC901997C0918134D091823499
:102CF80014961D921C92159780914F3490915034E0
:102D0800A0915134B0915234C816D906EA06FB0690
:102D180008F065C080904F3490905034A0905134A2
:102D2800B09052348091BB34882329F10E94065513
:102D3800A0E0B0E040914B3450914C3460914D3458
:102D480070914E3484179507A607B70720F48FEFC4
:102D58009FEFA0E0B0E040914B3450914C3460912B
:102D68004D3470914E34841A950AA60AB70A880E13
:102D7800991EAA1EBB1E209791F0FE01868197819D
:102D8800A085B18588199909AA09BB098683978303
:102D9800A087B1870480F581E02D309779F780917D
:102DA8004F3490915034A0915134B09152348819D5
:102DB8009909AA09BB0980934F3490935034A09382
:102DC8005134B0935234BFEFEB1AFB0AC818D90834
:102DD800EA08FB08F801C682D782E086F1862097C8
:102DE80041F18E819F81A885B985C816D906EA0662
:102DF800FB0658F41EC086819781A085B185C81648
:102E0800D906EA06FB06C0F1EF01EC81FD81309797
:102E180091F732C08091833390918433D80114960E
:102E28008D939C931597009381341093823481E09D
:102E38002BC010924B3410924C3410924D34109297
:102E48004E3480E090E00E94CF510E947F548091E0
:102E58004B3490914C34A0914D34B0914E340E9433
:102E6800CF510E947F548091813490918234B3E392
:102E78008F379B0799F6CECFD8011496ED93FC9324
:102E880015970C831D8380E0DF91CF911F910F91DF
:102E9800FF90EF90DF90CF90BF90AF909F908F9072
:022EA80008958B
:102EAA004F925F926F927F928F929F92AF92BF9250
:102EBA00CF92DF92EF92FF920F931F93CF93DF93FC
:102ECA00CDB7DEB7CC53D140CDBFDEBFBE016F5FF9
:102EDA007F4F20E1DB011D922A95E9F7FE017196E9
:102EEA0024E6DF011D922A95E9F7EC59FF4F28ECF9
:102EFA00DF011D922A95E9F78C01085F1F4F41E017
:102F0A0050E0C8010E94B83741E050E0BE016E5F50
:102F1A007F4FC8010E94B8378A818823ACF47E01AA
:102F2A00B3E0EB0EF11C5E01E6E0AE0EB11C41E02F
:102F3A0050E0B701C8010E94B837F7018081FFEF5E
:102F4A00EF1AFF0A88236CF0FE013296412C512CAD
:102F5A003201C12CD12C7601C394812C912C5401BD
:102F6A0004C0EA14FB0419F7EFCFA191AF77B0E0E0
:102F7A00A70196010E940652460E571E681E791E28
:102F8A00CC0CDD1CEE1CFF1CCC0CDD1CEE1CFF1C4B
:102F9A00CC0CDD1CEE1CFF1CCC0CDD1CEE1CFF1C3B
:102FAA00CC0CDD1CEE1CFF1CCC0CDD1CEE1CFF1C2B
:102FBA00CC0CDD1CEE1CFF1C8FEF881A980AA80A9D
:102FCA00B80A99F2DF0111978C91882374F242E0D2
:102FDA0050E0BE016A5F7F4FC8010E94B837BE0148
:102FEA006F5E7F4F688779874E815F8154274527B7
:102FFA005427C8010E94B8378E819F819827892754
:10300A0098274EEF5FEF6FEF7FEF481B590B61096F
:10301A007109440D551D661D771DCE018B589F4FB2
:10302A008D879E87BC01C8010E94B8370E94F2545E
:10303A00FC01892B29F06D857E85888599850995FE
:10304A00C8010E94C25383E0C45CDE4FCDBFDEBF1D
:10305A00DF91CF911F910F91FF90EF90DF90CF906A
:10306A00BF90AF909F908F907F906F905F904F909E
:02307A000895B7
:10307C002F923F924F925F926F927F928F929F927C
:10308C00AF92BF92CF92DF92EF92FF920F931F936A
:10309C00CF93DF93CDB7DEB7A597CDBFDEBF198237
:1030AC001A82833008F0A1C0823021F4603171059E
:1030BC0008F09DC00115110509F49BC021153105BF
:1030CC0009F499C0680119012A016CA37DA38BA393
:1030DC00AE014F5F5F4F0E94372C81118FC0298149
:1030EC003A81C801840D951D2817390708F485C04D
:1030FC003201769467947694679476946794769478
:10310C006794769467946894FF24F5F8812C912C3D
:10311C00A12CB12C80E2F8121CC089819A819301F8
:10312C00220F331F22953295307F3227207F322792
:10313C00821B930B809768F442018A0C9B1C96941B
:10314C0087949694879497E0892299246894FF2415
:10315C00F2F8EF2C8E010D5F1F4F282D462D6CA120
:10316C007DA18BA10E94F22A811148C0C301880F56
:10317C00991F880F991F880F991F880D991D880F0B
:10318C00991F880F991F8415950520F4B201681BAF
:10319C00790B02C060E070E08F2D90E0861B970BDE
:1031AC0086010A191B098017910708F48C0183E02A
:1031BC0090E08C0F9D1F680F791FA801C1018A0D2B
:1031CC009B1D0E947F53A00EB11E90E2F91204C009
:1031DC008FEF681A780A03C09FEF891A990AAC140A
:1031EC00BD0408F497CF80E009C082EE07C082EEE0
:1031FC0005C080E003C082EE01C082EEA596CDBF73
:10320C00DEBFDF91CF911F910F91FF90EF90DF9078
:10321C00CF90BF90AF909F908F907F906F905F906A
:08322C004F903F902F90089590
:103234002F923F924F925F926F927F928F929F92C2
:10324400AF92BF92CF92DF92EF92FF920F931F93B0
:10325400CF93DF93F12C06E515EED8011696CD91A8
:10326400DC9117970F2EF8ECAF2EFEEDBF2EF02D4C
:103274000F2EF8EA8F2EF5E69F2EF02D0F2EFDE08F
:103284003F2EF02D84C0D801ED91FC9109958D302D
:1032940021F08A3009F06BC07FC0E091B734F0E0D0
:1032A400EF5FFF4C10828091B634811154C07FC00F
:1032B4009091B5348093B5349D3009F453C0F11026
:1032C40051C060E270E081E090E30E9411523C0141
:1032D400009719F0FC0111923F01E1E0F0E3019045
:1032E4000020E9F73197E150F0432E2E0F2EF8EA33
:1032F400EF2EFEEDFF2EF02DD701CD90DC90B60120
:1033040081E090E30E948853F60101900020E9F7E0
:103314003197EC19FD0981110CC02E120AC0D70196
:103324001296ED91FC911397309719F0C30109950A
:103334000CC0B4E0EB0EF11CEA14FB04E9F69F9216
:103344008F920E94A24C0F900F908091B6348823E4
:1033540039F0FF24F39483E996E60E941C3B02C0F3
:10336400FF24F3941092B7341092B63410C0E09155
:10337400B734E43648F491E09E0F9093B734F0E00C
:10338400EF5FFF4C808303C081E08093B634FE017D
:103394000995811178CF0EC0E091B734F0E0EF5F6A
:1033A400FF4C10829091B6349111D5CF81CF3092D9
:1033B400B53485CF62E370E080E090E0DF91CF9197
:1033C4001F910F91FF90EF90DF90CF90BF90AF903F
:1033D4009F908F907F906F905F904F903F902F9031
:0233E40008954A
:1033E600FF920F931F93CF93DF9300D000D0CDB7FA
:1033F600DEB7029709F0B5C0613009F044C02091EC
:10340600D434022F10E0C801019667E070E00E94F4
:10341600D94D8093D4349BE0909FF001919FF00D9D
:103426001124E857F04D9085911109C08BE0809FDB
:10343600F001819FF00D1124E857F04D1BC0282F95
:1034460036E00F2EFBE0FF2EF02D07E010E0822F76
:1034560090E0F89EF001F99EF00D1124E857F04D2A
:103466000196B8010E94D94D582F9085911104C03C
:103476005093D434122F45C03150282F41F7509322
:10348600D4341FEF3EC0623009F06DC02091D334B2
:10349600822F90E03BE0239FF0011124EB52F04D88
:1034A600019683709078992324F401978C6F9F6F0F
:1034B60001968093D33430853323D1F0282F33E01F
:1034C6006BE0822F90E0689FF001699FF00D112458
:1034D600EB52F04D019683709078992324F401976E
:1034E6008C6F9F6F01965085511105C08093D33420
:1034F60017E0120F06C03150282F19F78093D334E6
:103506001FEF309789F18BE0DF011D928A95E9F76D
:1035160081E080878091AF349091B0349C012F5F19
:103526003F4F29F02093AF343093B03405C0029654
:103536008093AF349093B0348091AF349091B0348F
:103546008483958340FF10C0198381E2818724E03C
:1035560030E0AE014F5F5F4F60E582E00E944B4D69
:1035660003C01FEF01C01FEF812F2496CDBFDEBF22
:0C357600DF91CF911F910F91FF900895FD
:10358200A8E0B0E0E7ECFAE10C94C54B8B01FC013A
:10359200608171818281938120E831E541E050E0D0
:1035A2000E941F4869017A012CE330E040E050E0BC
:1035B2000E94334C29833A834B835C8389819A81AD
:1035C200AB81BC81F80160836CE370E00E94D94D4D
:1035D200DC01CB01F801A1838283C601069667E074
:1035E20070E00E94C54D84832DEA3EE840E050E041
:1035F200C701B6010E94334C29833A836D837E83CF
:103602008F83988789819A8124E6289F6001299F68
:10361200D00C11246D817E818F81988525EB35E058
:1036220040E050E00E94334C29833A836D837E83CD
:10363200E980FA80EE0CFF1CEE0CFF1CEC0CFD1C6A
:103642008D819E81F5E6EF16F10410F0019604C01B
:1036520024E6E216F10419F021E030E002C020E095
:1036620030E0A90144595E4F4817590768F46DE6E6
:1036720071E0821B930B0E94D94DDC01CB01E80E55
:10368200F91ECD0120E030E044E6E40EF11CF80121
:10369200E682F78280879187255C3F4F82179307E6
:1036A20048F46FE170E00E94D94DDC01CB01F801D2
:1036B200858322C069E970E0821B930B0E94D94D79
:1036C200DC01CB01F82EFF0CFF0CF80E6DE370E06D
:1036D200CD010E94D94DDC01CB01E82EEE0C6FE149
:1036E20070E0CD010E94D94DDC01CB0122E0280F10
:1036F200F20EFE0CF801F582A383F80112861386FE
:0E37020083818F5F83832896E8E00C940E4C41
:10371000CF92DF92EF92FF92CF93DF93CDB7DEB7D8
:10372000C057D109CDBFDEBF69017A01863059F19A
:10373000873009F440C0813009F09FC020E730E0B5
:10374000AE014F5F5F4FC701B6010E94DC3A8111A5
:1037500094C0E091A534F091A634309709F48DC05F
:1037600080E7C80ED11CE11CF11CC0925F34D092DE
:103770006034E0926134F0926234BE016F5F7F4F3B
:1037800081E009957AC024E030E0AE014F5F5F4FE1
:10379000C701B6010E94DC3A81116FC0E091A534E7
:1037A000F091A634309709F468C0BE016F5F7F4F77
:1037B00086E0099562C028E030E0AE014F5F5F4FC0
:1037C000C701B6010E94DC3A81114DC02D813E81B6
:1037D0008F8198856B817C8149815A8121153105C2
:1037E00099F421E02093CF348617970709F020E061
:1037F000CA01992781309105A1F1C8F08230910565
:10380000E9F00397F1F02AC0820F931F21E0861799
:10381000970709F020E0CA0199278130910509F145
:1038200030F08230910551F0039759F013C0809128
:10383000CF348130B1F44093CF3413C04093CF34B0
:1038400010C08091CF34823061F0843051F04093C9
:10385000CF3407C08091CF34823019F084E0809358
:10386000CF34222351F0E091A534F091A634309763
:1038700021F06FEC74E387E00995C059DF4FCDBFAD
:10388000DEBFDF91CF91FF90EF90DF90CF90089552
:103890001F93CF93DF93CDB7DEB72897CDBFDEBFA1
:1038A0000E942C54182F882309F4A0C0AE014F5F4A
:1038B0005F4F60E770E180E090E00E94974E8111D9
:1038C00084C089819A81AB81BC8180FF80C09C01CA
:1038D000AD012E7F29833A834B835C8360E770E1DF
:1038E00080E090E00E94193A811173C089819A8129
:1038F000AB81BC81B695A79597958795B695A79509
:10390000979587959F708093A3349093A434892BC7
:1039100009F461C047E554E364E870E180E090E0B9
:103920000E94974E811159C060915734709158345C
:103930008091593490915A3424E030E0AE014B5FCD
:103940005F4F0E94EC2F182F811149C06F8178853D
:103950008091A3349091A434861B970B059708F0AF
:1039600040C0ED818FEF8E0F8730E8F5809157349E
:1039700090915834A0915934B0915A349C01AD01C2
:10398000285F3F4F4F4F5F4F68507109F0E0EE0FD7
:10399000FF1FEC59F7410190F081E02D8E810995D0
:1039A00081E00E94764C22E030E040E050E060E7A9
:1039B00070E180E090E00E94CC3880E00E94764C7C
:1039C0000E94B655882391F010C014EF0FC014EF79
:1039D0000DC014EF0BC01EEF09C014EF07C014EFA9
:1039E00005C01AEF03C014EF01C014EF812F289611
:0C39F000CDBFDEBFDF91CF911F91089585
:1039FC00CF92DF92EF92FF920F931F93CF93DF93AF
:103A0C00CDB7DEB76097CDBFDEBF6B017C0181E621
:103A1C0094E50E94214F60E070EA80E090E00E9403
:103A2C00894BC114D104E104F10409F485C082E08E
:103A3C0090E089839A8383EB92E20E9453558B83A7
:103A4C009C83CD82DE82EF82F8860E9495556C01B4
:103A5C00DC015096ED91FC9151978081082E000C61
:103A6C00990B0E94135381111CC0F6010089118916
:103A7C0041E050E061E070E082E090E00E94E042C2
:103A8C00D8018C93D6015096ED91FC915197808181
:103A9C0088233CF00E94FA45009719F021E0FC01C4
:103AAC002483D6015096ED91FC9151978081082E7C
:103ABC00000C990B0E9413538130E1F5EBE1F8E215
:103ACC0001900020E9F731978F010B511842D60174
:103ADC005096ED91FC91519780812BE138E242E0B8
:103AEC0050E062E070E0082E000C990B0E943D340F
:103AFC00F82E811122C0D6015096ED91FC91519770
:103B0C00808140E150E0BE016F5F7F4F082E000CBA
:103B1C00990B0E941729F82E882379F0D60150961C
:103B2C00ED91FC9151978081082E000C990B0E940D
:103B3C00E34603C0F12C01C0F12C8F2D6096CDBF54
:103B4C00DEBFDF91CF911F910F91FF90EF90DF902F
:043B5C00CF90089569
:103B6000EF92FF920F931F93CF93DF93CDB7DEB702
:103B7000C25CD109CDBFDEBF8C01CF53DF4F1882AD
:103B80001982C15CD04081E090E08B839C83F80176
:103B9000808191818330910501F130F4813091056C
:103BA00051F0029731F15BC08430910509F445C0B2
:103BB0000597A1F154C0AE01435F5F4FBE016F5A3C
:103BC0007F4FC8010C960E94092A082E000C990B01
:103BD0008B839C83E12CF12C44C0CE010D960E9476
:103BE0009539082E000C990B8B839C83E12CF12CCA
:103BF00038C0AE014F5A5F4FB801645F7F4FF80184
:103C0000E25BFF4F808191810E94DE54082E000C00
:103C1000990B8B839C83E12CF12C23C0F8016485E4
:103C20007585868597850E942326082E000C990BA2
:103C30008B839C83E12CF12C14C07E01F1E7EF0E05
:103C4000F11CAE014F535F4FB701C8010C960E94A3
:103C5000F03E082E000C990B8B839C8302C0E12C54
:103C6000F12CF8018081918189839A8384819581E7
:103C7000A681B7818D839E83AF83B8878085918528
:103C8000A285B38589879A87AB87BC870E94375303
:103C9000CF53DF4F48815981C15CD0406E2D7F2DBD
:103CA000CE0101960E94A14ACE53DF4FCDBFDEBFA9
:0E3CB000DF91CF911F910F91FF90EF9008953B
:103CBE002564002A2E706F6F6C2E6E74702E6F72CC
:103CCE0067005468696E67204E616D6520697320C8
:103CDE006E6F742070726573656E742C20657272CF
:103CEE006F7220747970652025642C20757365724F
:103CFE0020646566696E6564207468696E67204924
:103D0E004420697320757365641B5B306D005468C5
:103D1E00696E67204E616D65207265616420667202
:103D2E006F6D2074686520646576696365206973BC
:103D3E002025731B5B306D0041575320456E647018
:103D4E006F696E74206973206E6F74207072657364
:103D5E00656E7420696E2057494E432C2065697438
:103D6E006865722072652D70726F766973696F6EF9
:103D7E00206F72206D6963726F636869702041579E
:103D8E00532073616E64626F7820656E64706F6924
:103D9E006E742077696C6C20626520757365641B88
:103DAE005B306D0041575320456E64706F696E74C1
:103DBE0020726561642066726F6D2057494E4320F4
:103DCE0069732025731B5B306D004D4348502E499F
:103DDE004F542E414343455353504F494E540000C8
:103DEE0000000000000000000000003132333435C6
:103DFE0036373839300000000000000000000000A7
:063E0E00000000000000AE
:103E14004F925F926F927F928F929F92AF92BF92D6
:103E2400EF92FF920F931F93CF93DF9300D000D0B4
:103E3400CDB7DEB77C0148015901742E66245524A0
:103E44004424872F9927AA27BB27482A592A6A2A54
:103E54007B2A8BE0482ADB01CA018827AA27BB27D3
:103E6400BA2FA92F982F8827482A592A6A2A7B2AE9
:103E7400442755277727452F562F672F7727442A1E
:103E8400552A662A772AA901980168E072E081E040
:103E940090E00E94193AA30192016CE072E081E083
:103EA40090E00E94193A25EA30E040E050E060E1F9
:103EB40072E081E090E00E94193A2FE130E040E0A6
:103EC40050E064E172E081E090E00E94193A20E061
:103ED40030E04DE050E06CE172E081E090E00E945F
:103EE400193A25E830E040E050E064E072E081E017
:103EF40090E00E94193AAE014F5F5F4F68E172E0B3
:103F040081E090E00E94974E811108C089819A81D6
:103F1400AB81BC810197A105B10569F70E94B65533
:103F2400882319F00DC084EF0CC09401A70160E050
:103F340070E08DE090E00E94EC2F882311F0F3CF25
:103F440084EF2496CDBFDEBFDF91CF911F910F91F7
:103F5400FF90EF90BF90AF909F908F907F906F9065
:063F64005F904F900895EC
:103F6A00A0E0B0E0EBEBFFE10C94C14BEC01EE8179
:103F7A00FF818F0104561109B9F0CF0185569109C5
:103F8A006C0197FF03C023E0C20ED11CD594C794DD
:103F9A00D594C7946CE97FEF0E94D94DC60ED71EFF
:103FAA008FEFC81AD80A02C0C12CD12C2DE631E0F5
:103FBA00D8010E943A540D2C000CEE08FF08C60ED8
:103FCA00D71EE81EF91E8B81082E000C990B8C0156
:103FDA00015011092D8122302CF4222379F1015E3E
:103FEA001F4F2CC0CF018459984F0E94ED4D282FA6
:103FFA0030E0255C3F4F200F311F8D81082E000CC9
:10400A00990B02978530910514F027563F4F65E0CA
:10401A0070E00E94D94DAC0197FF02C04F5F5F4F1D
:10402A00559547959DE3949F8001959F100D112406
:10403A00020F131F80FF02C0015E1F4FC801110F3C
:10404A00AA0BBB0B9C01AD012C0D3D1D4E1D5F1D26
:10405A0060E871E581E090E00E9404504B015C0148
:10406A00AA810A2E000CBB0B20E13EE00E943A54C2
:10407A006B017C01A9810A2E000CBB0B2CE330E0FA
:10408A000E943A54C60ED71EE81EF91E6881862F72
:10409A00660F990BAA0BBB0B8C0D9D1DAE1DBF1D88
:1040AA00BC01CD01680D791D8A1D9B1DCDB7DEB7F8
:0640BA00ECE00C940A4C3E
:1040C0000F931F93CF93DF930E94973F40E054E0FC
:1040D0008EEDFA01808320E234E0F901108280E461
:1040E00094E0FC011082C0E6D4E06FE06883A0E8B1
:1040F000B4E01C9200EA14E079E1F801708370E802
:10410000FA017483F9011482FC0114826C83149601
:104110001C921497F8011482FA01108A118A128AEB
:10412000138A148A158A168A178AF901108A118A45
:10413000128A138A148A158A168A178AFC01108A31
:10414000118A128A138A148A158A168A178A188A7B
:10415000198A1A8A1B8A1C8A84E08D8B1E8A1F8A00
:1041600050961C92509751961C92519752961C92C1
:10417000529753961C92539754961C925497559667
:104180001C92559756961C92569757961C92F8017A
:10419000108A88E0818B9BE0928B138A148A858B2E
:1041A000868B178AE0EEF5E0118210821482158268
:1041B000138212828AED95E580939534909396341C
:1041C0008BED95E580939334909394348CED95E545
:1041D00080939134909392348DED95E580938F3454
:1041E000909390348EED95E580938D3490938E343A
:1041F0008FED95E580938B3490938C3480EE95E52C
:104200008093893490938A34DF91CF911F910F91DD
:0242100008950F
:10421200246177732F7468696E67732F25732F7308
:104222006861646F772F757064617465007B2273B7
:1042320074617465223A7B227265706F7274656470
:10424200223A7B22746F67676C65223A25647D7D12
:104252007D0025732F73656E736F7273007B224C22
:1042620069676874223A25642C2254656D70223A7B
:1042720025642E253032647D00246177732F7468A3
:10428200696E67732F25732F736861646F772F755B
:1042920070646174652F64656C74610022746F6769
:1042A200676C65223A00746F7069633A2025731B4C
:1042B2005B306D007061796C6F61643A2025731B0D
:1042C2005B306D006131677174387374746969674A
:1042D2006E332E696F742E75732D656173742D3272
:1042E2002E616D617A6F6E6177732E636F6D00550B
:1042F20073696E6720746865204157532053616E5D
:1043020064626F7820656E64706F696E74203A2003
:1043120025731B5B306D004D4348502E494F5400AE
:104322006D6963726F636869700025640025732F7D
:104332006D656D6F727950696C6C007B2254696D8A
:0943420065223A222573227D0058
:01434B00046D
:10434C00CF92DF92EF92FF920F931F93CF93DF9355
:10435C00CDB7DEB7C75CD109CDBFDEBF4115510566
:10436C0009F454C0E0917D34F0917E34C080D1804A
:10437C00982F9370923009F062C02115310531F4F9
:10438C0047C00115110509F05EC044C08C836D83D4
:10439C007E8380E4FA01DE01179601900D928A95D6
:1043AC00E1F780E4F901DE01A95BBF4F01900D92AA
:1043BC008A95E1F709C083E1F801DE01A95BBF4FE3
:1043CC0001900D928A95E1F7BE016F5F7F4FC60198
:1043DC000E94DB47811143C060917D3470917E3423
:1043EC00CE0101960E949D28811139C0E114F1047F
:1043FC0099F08F81833290F080E2FE013896D701DC
:10440C0001900D928A95E1F780E029C082EE27C0D9
:10441C0082EE25C082EE23C080E021C080E01FC068
:10442C008C836D837E8380E4FA01DE011796019004
:10443C000D928A95E1F70115110531F2BCCF93303D
:10444C0009F49FCFEDCF8C836D837E8380E4FA01DA
:10445C00DE01179601900D928A95E1F7ACCFC95306
:10446C00DF4FCDBFDEBFDF91CF911F910F91FF903A
:08447C00EF90DF90CF9008954E
:10448400CF92DF92EF92FF92CF93DF9300D000D0D0
:10449400CDB7DEB7C0905B34D0905C34E0905D342F
:1044A400F0905E34C114D104E104F10409F078C041
:1044B400AE014F5F5F4F64EF73E180E090E00E94D4
:1044C400974E81116DC04BE554E360E070E180E0EC
:1044D40090E00E94974E811163C080915B3490916B
:1044E4005C34A0915D34B0915E34803A22E092074E
:1044F40020E1A207B105A9F489819A81AB81BC812D
:104504000197A105B105C1F181EA92E0A0E1B0E013
:1045140080935B3490935C34A0935D34B0935E34A9
:104524002BC0803B9240A041B10531F589819A812D
:10453400AB81BC8183309105A105B105E9F00497F5
:10454400A105B10569F481EB92E0A0E1B0E08093AC
:104554005B3490935C34A0935D34B0935E340CC0B0
:1045640082EB92E0A0E1B0E080935B3490935C3402
:10457400A0935D34B0935E34C0905B34D0905C34CF
:10458400E0905D34F0905E3480EFE82225E0E22A8A
:10459400C0925B34D0925C34E0925D34F0925E342D
:1045A400C701B6012496CDBFDEBFDF91CF91FF9046
:0845B400EF90DF90CF90089515
:1045BC008F929F92AF92BF92FF920F931F93CF93C4
:1045CC00DF93CDB7DEB7CC56D109CDBFDEBFF82E09
:1045DC0049015A018091D5318E3309F442C0F81645
:1045EC0031F005ED11E337C08F1135C002C005ED78
:1045FC0011E3D80111962D913C911297211531059B
:10460C0009F45BC0AE014F5F5F4FC501B4010E945E
:10461C00DC3A811159C0E091A734F091A83430975D
:10462C0001F1D80111968D919C911297892B71F003
:10463C00B1E1FB1205C01092D03489818093D23441
:10464C00BE016F5F7F4F8F2D09950BC060E070E04E
:10465C008F2D099506C00D5F1F4FF80180818E3399
:10466C0019F6F0E2FF1230C028E030E0AE014B59F1
:10467C005F4FC501B4010E94DC3A811125C0AB9695
:10468C002EAD3FADAB97A7964EAD5FADA797C501CD
:10469C00B401685F7F4F8F4F9F4F0E94DC3A8111AE
:1046AC0013C0E091A734F091A834309769F0BE01A3
:1046BC006B597F4F80E2099507C0E091A734F091C8
:1046CC00A834309771F2C2CFC459DF4FCDBFDEBFD3
:1046DC00DF91CF911F910F91FF90BF90AF909F9062
:0446EC008F9008950E
:1046F0007F928F929F92AF92BF92CF92DF92EF9272
:10470000FF920F931F93CF93DF93CDB7DEB7289718
:10471000CDBFDEBF6A018901FE01319697E0DF015E
:104720001D929A95E9F797EC99839091CB3491116A
:1047300049C091E09093CB342130310511F402E06F
:1047400010E08A837B836C831E830F8367E0CE0136
:1047500001960E94364DB82E811137C081EF8887AF
:1047600001151105D9F1712C6894882485F80F2E54
:10477000F3EF9F2EF02D0F2EF2EFAF2EF02D7801DC
:104780000130B0E21B0710F0E72CF82C0E191F09BE
:1047900009F4988661E070E0CE0108960E945332D9
:1047A0008823C9F0B701C6010E945332882399F0CB
:1047B000A886CE0CDF1C0115110509F70FC0109259
:1047C000CB3412C0BB24B3940FC0BB24B3940CC031
:1047D000BB24B39409C0BB24B39406C083EC0E94ED
:1047E000DF40882361F3F4CF8B2D2896CDBFDEBF49
:1047F000DF91CF911F910F91FF90EF90DF90CF90BD
:0C480000BF90AF909F908F907F90089524
:10480C00CF93DF93EC01EAE4F2E38DE1DF011D923B
:10481C008A95E9F790819F709061908384E08683FC
:10482C009DE4978391E5908794E5918792878387A0
:10483C008F89988D892B21F48B899C89892B21F068
:10484C0082EC8093563203C082E0809356324AE465
:10485C0052E38D859E85982789279827FA018587AD
:10486C009687A989BA89A18BB28BFD010190002092
:10487C00E9F79F01215031092A1B3B0BDA011F96E6
:10488C002D933C9350974091563246FF09C0898D29
:10489C009A8DFD01818F928F8F89988D878B908F48
:1048AC00442394F48D899E89EAE4F2E3858B968BFC
:1048BC006B897C89638B748B8789908D860F971F8E
:1048CC000496820F931F01C0C9010C968093653228
:1048DC0090936632407C81F0EAE4F2E38789908D14
:1048EC00982789279827878B908F83899489982775
:1048FC0089279827838B948B322723273227209361
:10490C00593230935A3281E08093C2348093BD3453
:06491C00DF91CF91089528
:10492200CF92DF92EF920F93CF93DF93CDB7DEB7A3
:104932002B97CDBFDEBFDC01690119821A828B83FE
:104942009C836D830E83E11002C082E001C080E08F
:10495200613248F00CC0FD01E60FF11D908191110A
:1049620003C0362F01C0362F6150A8F73D83423075
:1049720081F018F4413039F048C0433059F14430E5
:1049820009F43FC042C0BE016F5F7F4F0E94B8472B
:1049920043C0C114D104D9F11F82188619861A8620
:1049A2001B86F60101900020E9F73197EC19FD0909
:1049B200E034F10519F4CF82D88603C0C986DA86BD
:1049C200EB87AE01495F5F4FBE016F5F7F4F0E9471
:1049D200A12722C0C114D104E1F096012E5F3F4FFE
:1049E2002F833887F60191819150998790819A8718
:1049F200AE01495F5F4FBE016F5F7F4F0E94612D25
:104A02000BC0CD2841F084EF07C081EF05C081EFD4
:104A120003C081EF01C081EF2B96CDBFDEBFDF91D6
:0C4A2200CF910F91EF90DF90CF9008959E
:104A2E00CF92DF92EF92FF920F931F93CF93DF936C
:104A3E00CDB7DEB72897CDBFDEBF88230CF45FC09D
:104A4E006115710509F45DC04115510509F45BC08E
:104A5E00A82F082E000CBB0B9BE08902F00111243D
:104A6E00E857F04D9085992309F44FC09BE09A9F2B
:104A7E00F0019B9FF00D1124E857F04D6083718378
:104A8E00428353839285911142C09BE09A9FF0011D
:104A9E009B9FF00D1124E857F04D91E09287918580
:104AAE0090FF02C06DE401C066E4011511052105F9
:104ABE00310549F4CC24CA94DC2C7601C982DA8201
:104ACE00EB82FC8204C009831A832B833C838D8383
:104ADE008BE08A9FF0018B9FF00D1124E857F04D6B
:104AEE00848195818F83988728E030E0AE014F5FF7
:104AFE005F4F82E00E944B4D882361F00AC08AEF1F
:104B0E0009C08AEF07C08AEF05C08AEF03C080E0B4
:104B1E0001C082EF2896CDBFDEBFDF91CF911F91EE
:0C4B2E000F91FF90EF90DF90CF90089562
:104B3A00EF92FF920F931F93CF93DF93182F092FB2
:104B4A00F62EE72E8FE498E29F938F938BE792E8F5
:104B5A009F938F93C1E1D9E2DF93CF930E9441489B
:104B6A0009900020E9F72197AE0141515942612F7E
:104B7A00702F81E199E20E94EF500F900F900F90F1
:104B8A000F900F900F90892BB9F56EE972E88F2D6F
:104B9A009E2D0E940B4B009779F1FC018185813390
:104BAA00A9F481E08093D734E8E2F4E381E090E06D
:104BBA00A0E0B0E080839183A283B383148215823C
:104BCA0016821782CF010E94751413C01092D7342F
:104BDA00E8E2F4E3108211821282138281E090E00B
:104BEA00A0E0B0E084839583A683B783CF010E94B7
:104BFA00751482E08093D6340F931F9388EA92E863
:104C0A009F938F931F921F920E94503DEF92FF92A3
:104C1A0086EB92E89F938F931F921F920E94503DBA
:104C2A000E94C93D8DB79EB70C968DBF9EBFDF917E
:0C4C3A00CF911F910F91FF90EF90089513
:104C46008F929F92AF92BF92CF92DF92EF92FF9296
:104C56001F93CF93DF93CDB7DEB7C75ED109CDBF24
:104C6600DEBFFE01EB56FF4F20E5DF011D922A95C0
:104C7600E9F7CB51DF4F18821982C55ED040611526
:104C860071058105910509F445C04B015C01C12CF4
:104C9600D12C76019E012F5F3F4FAE014B5B5F4FDC
:104CA600BE016B567F4FCE018B519F4F0E94990BD1
:104CB600182F811134C0CB51DF4F88819981C55E91
:104CC600D0404797E1F4C951DF4F1882C75ED04004
:104CD6009E0129513F4FAE014F5F5F4FBE016B5B97
:104CE6007F4FCE018B569F4F0E94372F811114C0E4
:104CF600C951DF4F8881C75ED040882369F0BFEF76
:104D0600CB1ADB0AEB0AFB0A8C149D04AE04BF0423
:104D160009F605C014EF03C00E94E25514EF812F77
:104D2600C951DF4FCDBFDEBFDF91CF911F91FF90FD
:104D3600EF90DF90CF90BF90AF909F908F900895A7
:104D4600CF92DF92EF92FF920F931F93CF93DF9351
:104D5600CDB7DEB76097CDBFDEBF88230CF45BC04E
:104D66006115710509F459C0493795E0590708F0EE
:104D760056C0282F082E000C330B9BE08902F00149
:104D86001124E857F04D9085992309F44AC0898388
:104D96004B835C839BE0929FF001939FF00D11245F
:104DA600E857F04D0480F581E02DED87FE878730CA
:104DB60034F00F2EF4E4CF2ED12CF02D05C00F2E9B
:104DC600F0E5CF2ED12CF02D8BE0829FF001839F52
:104DD600F00D1124E857F04D818580FF0CC08BE063
:104DE600829FF001839FF00D1124E857F04DC68095
:104DF600D7808CE401C085E47A018B01682F606856
:104E060020E130E0AE014F5F5F4F82E00E947115F6
:104E1600882351F008C08AEF07C08AEF05C08AEFE1
:104E260003C08AEF01C082EF6096CDBFDEBFDF917F
:104E3600CF911F910F91FF90EF90DF90CF90089543
:104E4600CF93DF93FC0180E1A6EFB2E3ED01199267
:104E56008A95E9F78091BD34833009F06BC09C9147
:104E66009F7090639C93808183FB882780F980FBE9
:104E760093F99C9380818670997F982B9C939E7062
:104E8600983019F48C91877F8C939081A6EFB2E3CA
:104E96008C9190FB80F98C938781908517968D93E2
:104EA6009C93189727813085E90109900020E9F73E
:104EB600CE010197821B930B15968D939C931697A3
:104EC60020812695237071F0218519962C931997C8
:104ED60022851A962C931A9722E030E01E962D937F
:104EE6003C931F9724853585A6EFB2E31C962D9338
:104EF6003C931D9743851B964C931B971E962D91AD
:104F06003C911F972E5F3F4F240F311D280F391FED
:104F16001E962D933C931F979827892798271596B9
:104F26008D939C9316978091C23484608093C2348B
:0C4F360081E001C080E0DF91CF91089580
:104F4200CF92DF92EF92FF920F931F93CF93DF9353
:104F5200CDB7DEB7CC59D109CDBFDEBF4115510562
:104F620009F452C07A019B018E0103591F4F4CE68E
:104F720050E062E00E949129811153C0FE013196F6
:104F82008CE6DF011D928A95E9F7F7016081718154
:104F92006115710571F082819381892B79F580E425
:104FA200898340E2CE0102960E941A3C811138C0E8
:104FB2002DC0628173816115710511F14481413403
:104FC20008F5498350E0CE0102960E947F530F2ECE
:104FD200F0E3CF2ED12CF02D0F2EFCE6EF2EF12C8C
:104FE200F02D8E010F5F1F4F20E330E0AE014359D9
:104FF2005F4F6BEB81E00E94711513C081EF11C00E
:1050020081EF0FC081EF0DC081EF0BC0498150E0ED
:10501200F70160817181CE0102960E947F53D7CF42
:1050220081EFC456DF4FCDBFDEBFDF91CF911F911D
:0C5032000F91FF90EF90DF90CF90089559
:10503E00A0E0B0E0E5E2F8E20C94C54B8C01EB0188
:10504E00FC018481682F660F680F8581582F550FDC
:10505E00580F9E0140E0862F840F90E0A0E08A5703
:10506E009E4FAF4FFC018491A7FD8081F901819382
:10507E009F01852F840F90E0A0E084569E4FAF4F86
:10508E00FC018491A7FD8081F90183834F5F43303A
:10509E0011F780E28F838B83BE01685F7F4FF8012B
:1050AE00838140E2082E000C990B0E94A94EBE018E
:1050BE00655F7F4FF80182814AE3082E000C990B41
:1050CE000E94A94EBE01625F7F4FF80181814AE3C3
:1050DE00082E000C990B0E94A94EBE016F5E7F4FE9
:1050EE00F801808140E2082E000C990B0E94A94E17
:1050FE00F8018681978164E670E08459984F0E948A
:10510E00D94D6B017C01BE016C5E7F4F40E2C60142
:10511E000E94A94EBE016A5E7F4F40E0C7010E9409
:0C512E00A94ECDB7DEB7E8E00C940E4CA3
:10513A00AF92BF92CF92DF92EF92FF921F93CF93DB
:10514A00DF9300D0CDB7DEB76C017B01DB016D9137
:10515A007C91FC0182810E944630811157C0D7019F
:10516A00ED91FC911197A280B38012968D919C913A
:10517A0013970E94F74C182F811142C0F601418102
:10518A0050E0B601D70112968D919C9113970E9417
:10519A001054182F811134C0B50180E090E00E94AC
:1051AA00CC4EB6E0CB0ED11C80ECF60111928A955A
:1051BA00E9F780EC90E089839A83AE014F5F5F4FF5
:1051CA00B601D70112968D919C9113970E9417549C
:1051DA00182F811115C089819A818430910520F494
:1051EA00892B69F417EE0CC0C6010E94E541182FFD
:1051FA00811106C0C6010E947E42182F01C016EE18
:10520A00F701828193810E94DD4E812F0F900F90CA
:10521A00DF91CF911F91FF90EF90DF90CF90BF90D9
:04522A00AF900895A4
:10522E00AF92BF92CF92DF92EF92FF920F931F93A6
:10523E00CF93DF93CDB7DEB76097CDBFDEBF8C01C6
:10524E006B015A010E94FA457C01892B09F44FC06B
:10525E00F6018191919189839A832EE0DE01139656
:10526E0001900D922A95E1F70297D9F582E090E030
:10527E0089839A834A2DBE016F5F7F4F802F0E94D4
:10528E00DB2E882341F1873F01F18A3F99F51123E7
:10529E0034F486E28093C3348FEF9FEF2DC0CD2878
:1052AE0031F481E38093C3348FEF9FEF25C0AB2899
:1052BE0031F486E18093C3348FEF9FEF1DC086E2F9
:1052CE008093C3348FEF9FEF17C085E08093C33474
:1052DE008FEF9FEF11C082E0F701848380E090E0B2
:1052EE000BC08FE28093C3348FEF9FEF05C08FEF1B
:1052FE009FEF02C08FEF9FEF6096CDBFDEBFDF91B5
:10530E00CF911F910F91FF90EF90DF90CF90BF90B4
:04531E00AF900895AF
:105322000F931F93CF93DF93F901D801445D5F4F31
:10533200309709F459C022813381232B09F456C0D6
:105342009481913208F054C0109709F453C090E34D
:10535200E80119929A95E9F74D935C931197813080
:1053620059F088F0823009F047C012968C9112975A
:10537200826012968C93129712968C91129781608A
:1053820012968C93129785818F3F21F413968C93FA
:10539200139706C081508E3088F513968C9313971D
:1053A2008FEF860F843060F5ED018F016CA7848149
:1053B2008C83448150E062817381CD0105960E9405
:1053C2007F53F80180819181892BE1F081E08DA3E7
:1053D200DE0196960190F081E02D86E001900D921B
:1053E2008A95E1F780E00FC081EF0DC081EF0BC01D
:1053F20081EF09C084EF07C081EF05C081EF03C0D0
:1054020081EF01C080E0DF91CF911F910F9108954C
:105412009F92AF92BF92CF92DF92EF92FF920F9341
:105422001F93CF93DF936C015B01EA0180914334B8
:1054320090914434A0914534B0914634892B8A2B03
:105442008B2B41F010924334109244341092453425
:1054520010924634E0917D34F0917E340280F381E3
:10546200E02D0180F281E02D81818330C9F08091AD
:10547200433490914434A0914534B091463401961E
:10548200A11DB11D8093433490934434A0934534BD
:10549200B09346346894EE24E1F8F12C912C07C0C5
:1054A200EE24EA94FE2C0F2EFDE09F2EF02DBE017D
:1054B200C7010E94AA53811111C0C05CDF4F80E274
:1054C20090E08883998300E010E09501A601B7017E
:1054D200892D0E94A831811103C003C084EF01C04D
:1054E20084EFDF91CF911F910F91FF90EF90DF90AA
:0A54F200CF90BF90AF909F900895F7
:1054FC00EF92FF920F931F93CF93DF93D82FC62F6A
:10550C007A010E94FA458C01009709F45EC0C630FE
:10551C0009F118F4C53031F058C0C730B1F0C930BA
:10552C00A9F153C0E114F10409F44FC0D70111964D
:10553C008C91882324F083E0F801848346C08D2F5E
:10554C00DD0F990B0E94E34640C083E0D80114960E
:10555C008C933BC0E114F104C1F1F70162817381BA
:10556C00161617066CF4DC011296ED91FC9113974C
:10557C00D7018D919C91099583E0F801848325C016
:10558C008D2FDD0F990B0E94E3461FC0E114F1042F
:10559C00E1F0D7018D919C911197009789F01296AB
:1055AC006D917C9113976115710551F0D80112968C
:1055BC00ED91FC911397099583E0F801848305C064
:1055CC008D2FDD0F990B0E94E346DF91CF911F9138
:0855DC000F91FF90EF9008957C
:1055E400AF92BF92CF92DF92EF92FF920F931F93ED
:1055F400CF93DF93CDB7DEB7C95CD109CDBFDEBF92
:10560400F82E6801012BB1F1E0917D34F0917E34E4
:10561400A080B18084E0E816D9F180E2E8122CC0C1
:105624002EC08F2D8068F82EFC82C853DF4F8881EE
:105634009981C85CD0408D839E83BE016F5F7F4F8C
:10564400C5010E94835281112BC060917D347091F9
:105654007E34CE0101960E949D28182F81110EC020
:105664004E2D50E0BE01685F7F4FC6010E947F53FC
:10567400812F16C082EE14C082EE12C011C08E01BA
:1056840008531F4F8F2D0E944243811109C0C9CF77
:105694008E0108531F4F8F2D0E944243882321F20D
:1056A400C753DF4FCDBFDEBFDF91CF911F910F9165
:0E56B400FF90EF90DF90CF90BF90AF900895E1
:1056C2000F931F930E947954E0918134F0918234B8
:1056D200309719F40E940C4D5CC040914F345091A8
:1056E2005034609151347091523486819781A085F3
:1056F200B185841B950BA60BB70B009701E0A007A1
:10570200B10500F140914F345091503460915134C1
:1057120070915234AFE7B3E3415051096F4F7F4F5D
:1057220016964D935D936D937C9319971496ED9312
:10573200FC931597A0938134B09382348FEF9FEF3F
:10574200A0E0B0E04FEF5FEF60E070E08A019B0104
:10575200081B190B2A0B3B0B00934B3410934C3450
:1057620020934D3430934E3480E090E00E94CF512C
:105772000E947F5480914B3490914C34A0914D34CF
:10578200B0914E340E94CF510E94735481E08093B5
:08579200BB341F910F91089533
:10579A00EF92FF920F931F93CF93DF93CDB7DEB7AC
:1057AA00C75CD109CDBFDEBFA0917D34B0917E34F4
:1057BA00ED90FC90982F93708C836D837E8392304A
:1057CA0048F484E1FA01DE01179601900D928A9558
:1057DA00E1F715C09330B1F585FF09C080E4FA01FD
:1057EA00DE01179601900D928A95E1F708C080E2D2
:1057FA00FA01DE01179601900D928A95E1F7890167
:10580A00BE016F5F7F4FC7010E946B4A81111FC0A3
:10581A0060917D3470917E34CE0101960E949D285C
:10582A00811115C00115110579F08F81833270F04D
:10583A0080E2FE013896D80101900D928A95E1F72F
:10584A0080E005C082EE03C080E001C080E0C95359
:10585A00DF4FCDBFDEBFDF91CF911F910F91FF9038
:04586A00EF9008951E
:10586E004115510509F45AC0E0917D34F0917E3412
:10587E000280F381E02D0180F281E02D9181911162
:10588E001BC0813059F018F0823079F049C088E59C
:10589E0090E0FA018083918380E0089580E490E0A7
:1058AE00FA018083918380E0089580E290E0FA010E
:1058BE008083918380E00895813059F018F0823012
:1058CE0079F030C080E890E0FA018083918380E027
:1058DE00089580E490E0FA018083918380E008953A
:1058EE006830710538F484E290E0FA018083918388
:1058FE0080E008956830710539F480EA91E0FA018C
:10590E008083918380E008956031710568F488E4A6
:10591E0090E0FA018083918380E0089582EE0895ED
:0C592E0082EE089582EE089582EE089546
:10593A00CF93DF9310920A2810920B2810920C280A
:10594A0010920D2880910E288D7F886080930E28F2
:10595A0080910928877F8B7F809309280E9449417B
:10596A006BE970E58EE79AE20E945B530E94D2458A
:10597A00CFE0D8E28AE0FE0111928A95E9F7CE01DA
:10598A000E94F7540E949555FC0180899189888369
:10599A0099838FE895E58A839B8380917C28882365
:1059AA0039F081E09091F228911103C080E001C0A2
:1059BA0080E00E94DA448823A1F089E393E30E94FD
:1059CA009D4D40E157E260E070E083E493E30E947A
:1059DA00922F809109288D7F8860816080930928A1
:1059EA0005C0809109288E7F8093092860E070E0C5
:0859FA00CB01DF91CF9108956C
:105A0200FC01892B09F444C08081882309F442C037
:105A1200DF010D900020E9F71197AE1BBF0B9197A4
:105A2200D8F581A181508E30C8F5DF01AF5BBF4F41
:105A32008C91811108C011968C91811104C011962C
:105A42008C91882369F187AD813061F18330B9F49B
:105A520082A18150843040F583A18F7E8A3031F556
