:100000000C9493000C94DF540C94944F0C945A3D30
:100010000C94A0430C94DF540C94DF540C94DF54E4
:100020000C94DF540C94DF540C94DF540C94DF5484
:100030000C94DF540C94DF540C94DF540C947446ED
:100040000C94DF540C94DF540C94DF540C94DF5464
:100050000C94DF540C94DF540C94854F0C94CC43D7
:100060000C94DF540C94DF540C94DF540C94DF5444
:100070000C94DF540C946A310C94DF540C94A1441A
:100080000C94CA440C946A4C0C94DF540C94DF54C6
:100090002800315F80315F31B000A9F631B031F115
:1000A0008031F1325E00AA47325E327080327032A7
:1000B0008000AAB43280329E80329E32AC00AAC444
:1000C00032AC32B98032B9335900AAD2335933A98C
:1000D0008033A933CD00AB7233CD33D18033D133EC
:1000E000D500AB9633D533DD8033DD33E100AB9AF9
:1000F00033E13429803429342D00AB9E342D34442F
:1001000080344434450026B5344534538034533468
:1001100054005B1534543457803457345800905F82
:1001200034583461800011241FBECFEFCDBFDFE310
:10013000DEBFE0E9F0E041E017C0B591A59135914F
:100140002591059107FD0CC095918591EF01F92F3F
:10015000E82F05900D92A217B307D9F7FE0104C04E
:100160001D92A217B307E1F7E532F40731F70E94B9
:0A01700047540C94BB00F894FFCF35
:10017A00EF92FF920F931F93CF93DF9300D0CDB7E7
:10018A00DEB78C011092473480914534823020F0DA
:10019A00833009F497C084C280914A3480FF80C2B8
:1001AA00C8010E94DD52C80108960E94DD5241E052
:1001BA0050E064ED71E3C8010E9429380F2EF4ED76
:1001CA00EF2EF1E3FF2EF02D65ED71E3F701838D3C
:1001DA00948D0E946E4A482F50E065ED71E3C80184
:1001EA000E9429384AE050E069ED71E3C8010E9493
:1001FA00293842E050E063EE71E3C8010E942938D1
:10020A00F70161897289FB0101900020E9F73197B2
:10021A00AF01461B570BC8010E942938F70187898D
:10022A00908D892B31F48091E7319091E831892BB7
:10023A0051F142E050E067EE71E3C8010E942938AB
:10024A000F2EF4EDEF2EF1E3FF2EF02DF701438987
:10025A00548954274527542765897689C8010E94FD
:10026A00293842E050E06BEE71E3C8010E94293858
:10027A00F7014789508D542745275427618D728D80
:10028A00C8010E942938C8010E94CF49882309F46D
:10029A000AC280914A348E7F80934A3485E08093E3
:1002AA00473440E355E760E070E08BE393E30E9454
:1002BA00FE2E82E080934534809148348E7F80936D
:1002CA004834EEC180914A34882309F4E9C1482FA1
:1002DA0050E080FDE5C180E08F5F682F9A01082E0B
:1002EA0002C0359527950A94E2F720FFF5CF81E001
:1002FA0090E002C0880F991F6A95E2F7883009F4E6
:10030A00D8C020F4843009F450C0CAC1803109F43D
:10031A0050C1803209F0C4C18091483481FFC0C104
:10032A00809148348D7F8093483419821A82C8019B
:10033A000E94DD52C80108960E94DD5289818170AF
:10034A00806C8E7F89831A8241E050E0BE016F5F24
:10035A007F4FC8010E94293841E050E0BE016E5F1C
:10036A007F4FC8010E942938C8010E94CF498823BB
:10037A0009F496C180914A348F7D80934A348091E2
:10038A004934806180934934809148348B7F8093CB
:10039A00483440E355E760E070E087E293E30E9467
:1003AA00FE2E85E0809347347BC181E393E30E946C
:1003BA00E64CC8010E94DD52C80108960E94DD522F
:1003CA0041E050E060E872E3C8010E9429380F2E2C
:1003DA00F0E8EF2EF2E3FF2EF02D61E872E3F70169
:1003EA00868597850E946E4A482F50E061E872E33D
:1003FA00C8010E94293842E050E065E872E3C8016A
:10040A000E942938F70145815681542745275427E8
:10041A0067817085C8010E942938F701808186703A
:10042A00823071F441E050E06AE872E3C8010E9448
:10043A00293841E050E069E872E3C8010E9429388E
:10044A00E0E8F2E3438550E064857585C8010E94BF
:10045A00293880914A3482FD04C08091803283FF1A
:10046A0030C1C8010E94CF49882309F42AC180916A
:10047A004A348B7F80934A348091803286708230EE
:10048A0009F015C1809149348062809349340FC1C3
:10049A009827892798279C0121503109A8EEB3E0B3
:1004AA000E94A34FAB01BC0181E393E30E94FE2E9D
:1004BA00F7C0C8010E94DD52C80108960E94DD52A9
:1004CA0041E050E060E972E3C8010E9429380F2E2A
:1004DA00F0E9EF2EF2E3FF2EF02D61E972E3F70166
:1004EA00848595850E946E4A482F50E061E972E33F
:1004FA00C8010E94293841E050E066E972E3C80168
:10050A000E94293841E050E065E972E3C8010E947F
:10051A00293842E050E067E972E3C8010E942938AD
:10052A00F7014781508554274527542761857285ED
:10053A00C8010E94293841E050E06BE972E3C80122
:10054A000E942938C8010E94CF498823D1F080919E
:10055A004A34877F80934A348091493484608093F7
:10056A00493480914834877F8093483440E355E783
:10057A0060E070E08DE193E30E94FE2E85E08093B7
:10058A0047348091E1319091E231009709F488C0B3
:10059A009827892798279C0121503109A8EEB3E0B2
:1005AA000E94A34FAB01BC0181E393E30E94FE2E9C
:1005BA0077C0C8010E94DD52C80108960E94DD5228
:1005CA0041E050E06CEA72E3C8010E9429380F2E1C
:1005DA00FCEAEF2EF2E3FF2EF02D6DEA72E3F7014B
:1005EA00838594850E946E4A482F50E06DEA72E333
:1005FA00C8010E94293841E050E062EB72E3C80169
:10060A000E94293841E050E061EB72E3C8010E9480
:10061A00293842E050E063EB72E3C8010E942938AE
:10062A00F7014781508554274527542761857285EC
:10063A00C8010E942938C8010E94CF498823D1F0F5
:10064A0080914A348F7E80934A34809149348860FD
:10065A0080934934809148348F7E8093483440E3B4
:10066A0055E760E070E083E193E30E94FE2E85E0A7
:10067A00809347348091E1319091E231009781F083
:10068A009827892798279C0121503109A8EEB3E0C1
:10069A000E94A34FAB01BC0181E393E30E94FE2EAB
:1006AA008091453411C086E080934734F9CF85E0C4
:1006BA00809347348091E1319091E231009781F340
:1006CA00E7CE10924534ECCF0F900F90DF91CF9187
:0A06DA001F910F91FF90EF9008951B
:1006E4002F923F924F925F926F927F928F929F923E
:1006F400AF92BF92CF92DF92EF92FF920F931F932C
:10070400CF93DF93CDB7DEB7C455D109CDBFDEBFDC
:100714008B0169017A01813411F08435E9F424E014
:1007240030E0AE014F5F5F4FC701B6010E94F5395B
:10073400811147C28A8126968FAF2697E09137347C
:10074400F0913834309709F43CC2AE014B5B5F4FF3
:1007540061E08981099535C28234E9F424E030E00E
:10076400AE014F5F5F4FC701B6010E94F539811199
:1007740028C28A8126968FAF2697E0913734F0916C
:100784003834309709F41DC2AE014B5B5F4F62E011
:100794008981099516C2833409F077C02CE030E0D2
:1007A400AE014B5B5F4FC701B6010E94F539811161
:1007B40008C22F968FAD2F9788230CF441C0482F81
:1007C400082E000C550B2E962FAD2E973BE02303DD
:1007D400F0011124EE59F04D9185349FF001359FBD
:1007E400F00D1124EE59F04D918791E090876196B8
:1007F4002EAD3FAD61972850310926833783209170
:10080400393430913A34B9016F5F7F4F29F06093E6
:10081400393470933A3406C02E5F3F4F20933934F5
:1008240030933A349BE0949FF001959FF00D11248E
:10083400EE59F04D2091393430913A342483358384
:10084400898382E090E08A839B8329968EAD9FAD55
:1008540029978C839D832D968CAD9DADAEADBFAD98
:100864002D978E839F83A887B987E0913734F091C1
:100874003834309709F4A5C1AE014F5F5F4F64E08F
:100884002E968FAD2E9709959CC1843411F08B342C
:1008940071F524E030E0AE014F5F5F4FC701B60150
:1008A4000E94F53981118DC1898126968FAF2697D3
:1008B4009A8127969FAF279791110CC02BE0820253
:1008C400F0011124EE59F04D2B813C81285031095F
:1008D40026833783E0913734F0913834309709F424
:1008E40070C1AE014B5B5F4F65E009956AC18A3404
:1008F400E1F424E430E0AE014F5F5F4FC701B6017D
:100904000E94F53981115DC1E0913534F09136349E
:10091400309709F456C125964CAD5DAD6EAD7FADF3
:100924002597CE01019609954CC1863451F088343F
:1009340069F08D3409F0DDC00F2EF6E0AF2EF02DF6
:1009440009C00F2EF6E0AF2EF02D04C00F2EF9E0F3
:10095400AF2EF02D20E130E0AE014B5B5F4FC701BD
:10096400B6010E94F53981112CC16296BFAC629721
:1009740065962EAD3FAD65976B2D0B2C000C770B58
:100984008B2D9BE08902F0011124EE59F04D128663
:100994002F968EAD9FAD2F976196AEADBFAD61978B
:1009A40029964EAD5FAD299749875A872D964CAC51
:1009B4005DAC6EAC7FAC2D974B865C866D867E8677
:1009C400448155812417350709F0FBC01816190610
:1009D4000CF07DC04C018017910708F078C0009797
:1009E40009F4EFC02BE0269FF001279FF00D11249E
:1009F400EE59F04D20813181232B09F4E2C02BE024
:100A0400269FF001279FF00D1124EE59F04D22810D
:100A14003381232B09F4D5C02BE0269FF001279FB7
:100A2400F00D1124EE59F04D2085213009F0C9C094
:100A3400CA0EDB1EE11CF11C8D839E832BE0269FD6
:100A4400C001279F900D1124FC01EE59F04D3F0188
:100A54002F01F2E04F0E511C130128E0220E311C2D
:100A6400F201008111818016910608F48401F301DA
:100A7400408151819801C701B6010E94F539811165
:100A8400A0C0F3018081918189839A830B831C83A5
:100A94008D819E81801B910B8D839E83E0913734E1
:100AA400F0913834309731F0AE014F5F5F4F6A2DCB
:100AB4008B2D0995C00ED11EE11CF11CF101808122
:100AC400882309F47EC0801A910A51F67AC08B8378
:100AD4009C8319821A82E0913734F091383430972C
:100AE40009F46FC0AE014F5F5F4F6A2D8B2D0995DE
:100AF40068C0853431F0873431F08C3481F517E0E7
:100B040003C017E001C018E028E030E0AE014F5FF9
:100B14005F4FC701B6010E94F539811152C0898126
:100B24004D815E812B813C8127962EAF3FAF279765
:100B34002BE08202F0011124EE59F04D248135811D
:100B440042175307F1F5E0913734F0913834309778
:100B5400C1F1AE014B5B5F4F612F099532C0823505
:100B640081F524E130E0AE014F5F5F4FC701B6016C
:100B74000E94F539811125C04D815E816F81788590
:100B84008091ED339091EE33A091EF33B091F03337
:100B9400481759076A077B0781F4E0913334F091D1
:100BA4003434309751F029853A854B855C856981C9
:100BB4007A818B819C810989099510923334109232
:100BC4003434CC5ADF4FCDBFDEBFDF91CF911F91BC
:100BD4000F91FF90EF90DF90CF90BF90AF909F90D8
:100BE4008F907F906F905F904F903F902F900895DB
:100BF400CF92DF92EF92FF920F931F93CF93DF93E5
:100C0400CDB7DEB72997CDBFDEBF8C011092473434
:100C140019828091483482FD08C08091483483FD54
:100C240004C08091483484FF05C010924534C80143
:100C34000E94364EF80186859785892B19F4809198
:100C44004534CAC180914534823039F0833009F487
:100C540081C0813009F0A9C1ABC18091483480FDC5
:100C640070C0C090E131D090E2318BE393E30E94F5
:100C7400E64C7801F8E0EF0EF11C41E050E0BE01D3
:100C84006F5F7F4FC7010E945C379C019981907F01
:100C9400903209F046C08E010E5F1F4F84E0F801C8
:100CA40011928A95E9F741E050E0B801C7010E942A
:100CB400D13641E050E0BE016D5F7F4FC7010E9415
:100CC400D136B8016E5F7F4F41E050E0C7010E940A
:100CD400D13641E050E0BE016B5F7F4FC7010E94F7
:100CE400D1368D81882309F466C170C180914A345C
:100CF400806280934A34809149348F7E8093493452
:100D0400960121503109A8EEB3E00E94A34FAB0134
:100D1400BC0181E393E30E94FE2E84E08093473478
:100D240047C182E08093473489818093463420937D
:100D34000F343093103410924534C8010E94364E5B
:100D440037C110924534C8010E94364E81E0809329
:100D540047342EC17801F8E0EF0EF11C41E050E079
:100D6400BE016F5F7F4FC7010E945C378981829506
:100D74008F708930C1F138F4833009F4DCC08430D9
:100D840009F4DDC015C18B3009F485C08D3009F03C
:100D94000FC18091493484FF0BC18091483482FD96
:100DA40007C187E293E30E94E64C1A821B8241E06A
:100DB40050E0BE016E5F7F4FC7010E94D136809123
:100DC40049348F7E809349348091E1319091E231AE
:100DD400892B29F080914A34806280934A34C70178
:100DE4000E94DD52E5C08091493482FFE1C08091C8
:100DF400483483FDDDC08DE193E30E94E64CBE01DF
:100E04006E5F7F4F88E0FB0111928A95E9F741E01C
:100E140050E0C7010E94D13641E050E0BE016D5F51
:100E24007F4FC7010E94D13641E050E0BE01695FA7
:100E34007F4FC7010E94D13641E050E0BE01685F98
:100E44007F4FC7010E94D1369885809195329813BF
:100E540012C09F818091963298130FC041E050E0F8
:100E6400BE01675F7F4FC7010E94D13689858038F4
:100E740031F013E005C010E003C010E001C010E041
:100E8400809149348B7F80934934C7010E94DD529D
:100E9400109345348DC08091493483FF89C080917B
:100EA400483484FD85C083E193E30E94E64CBE018F
:100EB4006E5F7F4F84E0FB0111928A95E9F741E070
:100EC40050E0C7010E94D13641E050E0BE016D5FA1
:100ED4007F4FC7010E94D1368B818230E1F441E01B
:100EE40050E0BE016C5F7F4FC7010E94D13641E0E4
:100EF40050E0BE016B5F7F4FC7010E94D1369D81D8
:100F04008091B132981309C09C818091B2329817B4
:100F140031F010E005C010E003C010E001C013E0A0
:100F240080914934877F80934934C7010E94DD5200
:100F3400109345343DC0C8010E943E1739C08E014C
:100F44000E5F1F4F84E0F80111928A95E9F741E0A2
:100F540050E0B801C7010E94D13641E050E0BE0123
:100F64006D5F7F4FC7010E94D13641E050E0BE0162
:100F74006B5F7F4FC7010E94D136B8016E5F7F4F10
:100F840041E050E0C7010E94D1369C8180918932B2
:100F940098130EC09D8180918A32981309C0809164
:100FA40049348F7D8093493403C087E0809345346E
:100FB4008091453411C0DC24CD24DC2483E080936B
:100FC4004534C114D10409F4A8CE90CE109245340E
:100FD40083E080934734ECCF2996CDBFDEBFDF9109
:100FE400CF911F910F91FF90EF90DF90CF900895D4
:100FF400ABE0B0E0E0E0F8E00C94044B6C017B0162
:101004008A01FC0116821782838181FFCCC1CE0143
:1010140001963C01F6019381F70193FD859193FFBD
:1010240081917F01882309F4BAC1853239F493FD93
:10103400859193FF81917F01853229F4B60190E077
:101044000E941E3DE7CF912C212C312CFFE1F3159A
:10105400D8F08B3279F038F4803279F08332A1F40D
:10106400232D20611DC08D3261F0803369F4232D5E
:10107400216016C0832D8260382EE32DE4603E2E5D
:101084002AC0F32DF8601DC037FC2DC020ED280FB9
:101094002A3040F08E32B9F436FC81C1232D20640D
:1010A400322E19C036FE06C08AE0989E200D112407
:1010B400922E11C0EAE02E9E200D1124222EF32D33
:1010C400F0623F2E08C08C3621F4832D8068382EC0
:1010D40002C0883641F4F70193FD859193FF819115
:1010E4007F018111B3CF982F9F7D9554933028F4BD
:1010F4000C5F1F4F9FE399830DC0833631F0833714
:1011040071F0833509F059C021C0F80180818983C9
:101114000E5F1F4F88248394912C530113C0280120
:10112400F2E04F0E511CF801A080B18036FE03C0DE
:10113400692D70E002C06FEF7FEFC5010E944D5131
:101144004C018201F32DFF773F2E16C0280122E0C7
:10115400420E511CF801A080B18036FE03C0692DF7
:1011640070E002C06FEF7FEFC5010E9442514C0155
:10117400F32DF0683F2E820133FC1BC0822D90E0DA
:1011840088169906B0F4B60180E290E00E941E3DF4
:101194002A94F4CFF50137FC859137FE81915F01E4
:1011A400B60190E00E941E3D21102A9421E0821A8B
:1011B40091088114910471F7E8C0843611F08936DE
:1011C40041F5F80137FE07C0608171818281938106
:1011D4000C5F1F4F08C060817181072E000C880BC3
:1011E400990B0E5F1F4FF32DFF763F2E97FF09C01B
:1011F40090958095709561957F4F8F4F9F4FF068C4
:101204003F2E2AE030E0A3010E94E92D882E8618A3
:1012140045C0853731F4232D2F7EB22E2AE030E0ED
:1012240025C0932D997FB92E8F36C1F018F48835D7
:1012340079F0B5C0803719F0883721F0B0C0E92FB4
:10124400E061BE2EB4FE0DC0FB2DF460BF2E09C0BC
:1012540034FE0AC0292F2660B22E06C028E030E0F2
:1012640005C020E130E002C020E132E0F801B7FE21
:1012740007C060817181828193810C5F1F4F06C01A
:101284006081718180E090E00E5F1F4FA3010E9496
:10129400E92D882E8618FB2DFF773F2E36FE0DC0D4
:1012A400232D2E7FA22E891458F434FE0BC032FC59
:1012B40009C0832D8E7EA82E05C0B82CA32C03C094
:1012C400B82C01C0B92CA4FE0FC0FE01E80DF11D1D
:1012D4008081803321F49A2D997EA92E09C0A2FE23
:1012E40006C0B394B39404C08A2D867809F0B394ED
:1012F400A3FC11C0A0FE06C0B21488F4280C922CE2
:101304009B180EC0B21460F4B60180E290E00E9413
:101314001E3DB394F7CFB21418F42B1802C0982CC6
:10132400212CA4FE10C0B60180E390E00E941E3D73
:10133400A2FE17C0A1FC03C088E790E002C088E5C4
:1013440090E0B6010CC08A2D867859F0A1FE02C047
:101354008BE201C080E2A7FC8DE2B60190E00E941E
:101364001E3D891438F4B60180E390E00E941E3DCE
:101374009A94F7CF8A94F301E80DF11D8081B601A8
:1013840090E00E941E3D8110F5CF222009F442CE48
:10139400B60180E290E00E941E3D2A94F6CFF60149
:1013A4008681978102C08FEF9FEF2B96E2E10C9428
:0213B4004D4B9F
:1013B600CF92DF92EF92FF920F931F930E94054AFE
:1013C600E0E0F4E08289887F8360828B8BE592E49B
:1013D6000E94F8540E9464300E94BE4C86E392E359
:1013E6000E94ED5386E392E30E943D540E9407500B
:1013F600811105C080910E28846080930E2886E3B3
:1014060092E30E946C3880937529882329F0809195
:101416000E28846080930E2886E392E30E94ED53A3
:1014260086E392E30E940D530E9477440E94FA35A8
:1014360048EE53E060E070E085E493E30E94FE2E00
:1014460040E257E466E170E0C12CD12C760100E061
:1014560010E0980186B38074080F111D211D311DFF
:1014660086B38072C80ED11CE11CF11C4150510993
:101476006109710979F7003913422B40310508F0EB
:10148600BEC080E9C81683E2D8068BE0E806F10400
:1014960008F06CC089E0EAE0F3E8ACE7B8E2019056
:1014A6000D928A95E1F78AE0E3E1F3E8ADE9B8E267
:1014B60001900D928A95E1F71F9282E08F938DE15C
:1014C60093E89F938F9382EF98E29F938F930E9466
:1014D6008A47E4ECF3E30F2EFAEFCF2ED12CE12C62
:1014E600F12CF02DC082D182E282F382C482D582B1
:1014F600E682F782CF010E945E14EBEBF3E3C08233
:10150600D182E282F382C482D582E682F782CF015B
:101516000E945E14E2EBF3E31082118212821382C0
:10152600C12CD12C7601C394C482D582E682F7827F
:10153600CF010E945E14E9EAF3E31082118212825F
:101546001382C482D582E682F782CF010E945E149E
:1015560080910E2888608F7D806480930E280F907E
:101566000F900F900F900F900F90AAC0E4ECF3E34A
:1015760084EF91E0A0E0B0E080839183A283B383FF
:1015860084839583A683B783CF010E945E14EBEB19
:10159600F3E31082118212821382C12CD12C7601C0
:1015A600C394C482D582E682F782CF010E945E147C
:1015B600E2EBF3E31082118212821382C482D58297
:1015C600E682F782CF010E945E14E9EAF3E3108215
:1015D600118212821382C482D582E682F782CF01FB
:1015E6000E945E1480910E28877F80628F7B809395
:1015F6000E2860E088E394E50E94504844C0E4EC7D
:10160600F3E38AEF90E0A0E0B0E080839183A283C9
:10161600B38384839583A683B783CF010E945E1428
:10162600EBEBF3E31082118212821382C12CD12CD0
:101636007601C394C482D582E682F782CF010E94E6
:101646005E14E2EBF3E31082118212821382C482EB
:10165600D582E682F782CF010E945E14E9EAF3E3BF
:101666001082118212821382C482D582E682F782A8
:10167600CF010E945E1480910E2888608F7D8F7B3B
:1016860080930E281DC00E9464308FE498E29F93D9
:101696008F938CE692E89F938F9381E199E29F93D3
:1016A6008F930E948A4767E875E281E199E20E947A
:1016B6004A4D0F900F900F900F900F900F9012C001
:1016C60061E088E394E50E94504886E392E30E9435
:1016D600F85144E650E060E070E08FE493E30E9446
:1016E600FE2ED1CF1F910F91FF90EF90DF90CF90FC
:0216F600089555
:1016F800AF92BF92CF92DF92EF92FF920F931F9318
:10170800CF93DF93CDB7DEB72697CDBFDEBF7C0181
:101718006B016091E9337091EA338091EB339091DA
:10172800EC33611571058105910509F4FDC0890146
:101738005A0122E030E0A7010E94F5398111F6C074
:101748008091E9339091EA33A091EB33B091EC3377
:10175800BC01CD016E5F7F4F8F4F9F4F6093E93380
:101768007093EA338093EB339093EC3322E030E0CC
:10177800AE014B5F5F4F0E94F5398111D9C080914E
:10178800E9339091EA33A091EB33B091EC33BC018B
:10179800CD016E5F7F4F8F4F9F4F6093E9337093FA
:1017A800EA338093EB339093EC3322E030E0AE01E0
:1017B8004F5F5F4F0E94F5398111BCC08091E933BA
:1017C8009091EA33A091EB33B091EC33BC01CD0199
:1017D8006E5F7F4F8F4F9F4F6093E9337093EA336B
:1017E8008093EB339093EC3322E030E0AE014D5F11
:1017F8005F4F0E94F53981119FC08091E933909124
:10180800EA33A091EB33B091EC33BC01CD016E5FAC
:101818007F4F8F4F9F4F6093E9337093EA338093E4
:10182800EB339093EC33F701208131813227232762
:101838003227208331832D813E8132272327322787
:10184800F801E05CFF4F2083318349815A81542796
:101858004527542749835A834B815C815427452760
:1018680054274B835C83220F331FA8010E94F5394C
:10187800811164C0F801E05CFF4F20813181220FA3
:10188800331F8091E9339091EA33A091EB33B09103
:10189800EC33BC01CD01620F731F811D911D609354
:1018A800E9337093EA338093EB339093EC332981D7
:1018B8003A81A6010E94F539811142C029813A81F5
:1018C8008091E9339091EA33A091EB33B091EC33F6
:1018D800BC01CD01620F731F811D911D6093E93317
:1018E8007093EA338093EB339093EC332B813C81F4
:1018F800A5010E94F539811125C02B813C814091B9
:10190800E9335091EA336091EB337091EC33420F35
:10191800531F611D711D4093E9335093EA3360935F
:10192800EB337093EC330FC084EF0DC084EF0BC022
:1019380084EF09C084EF07C084EF05C084EF03C0BB
:1019480084EF01C084EF2696CDBFDEBFDF91CF9133
:101958001F910F91FF90EF90DF90CF90BF90AF90C5
:021968000895E0
:10196A00CF92DF92EF92FF92CF93DF93EB018B310D
:10197A0009F4EEC020F4893009F4F2C021C18C3296
:10198A0021F0823309F4CBC01BC18881813009F070
:10199A005FC080914134882309F18FEF92E30E945E
:1019AA00E64C10924134E4ECF3E38AEF90E0A0E0D5
:1019BA00B0E080839183A283B38384839583A683D3
:1019CA00B783CF010E945E1448EE53E060E070E0F6
:1019DA0085EF92E30E94FE2E0E947E5080910E288F
:1019EA008A708830C1F4EBEBF3E38AEF90E0A0E071
:1019FA00B0E080839183A283B38384839583A68393
:101A0A00B783CF010E945E1480910E288260877B83
:101A1A00806180930E2880910E2885FF16C08F7DE5
:101A2A0080930E28E4ECF3E388EE93E0A0E0B0E0C4
:101A3A0080839183A283B38384839583A683B783A8
:101A4A0083E08087CF010E945E140E945D4D59C0D9
:101A5A00811157C0E2EBF3E31082118212821382E2
:101A6A00C12CD12C7601C394C482D582E682F78236
:101A7A00CF010E945E14E9EAF3E310821182128216
:101A8A001382C482D582E682F782CF010E945E1455
:101A9A0080910E2886FD22C0EBEBF3E310821182BF
:101AAA001282138281E090E0A0E0B0E08483958303
:101ABA00A683B783CF010E945E14E4ECF3E38AEFB6
:101ACA0090E0A0E0B0E080839183A283B383848313
:101ADA009583A683B783CF010E945E1480910E2856
:101AEA008D7E886080930E2842E350E060E070E0CB
:101AFA0081EE92E30E94FE2E80910E2881608093EF
:101B0A000E28E0910334F0910434309709F458C058
:101B1A0080910E2880FD54C08881099551C08BE1BF
:101B2A0098E20E94EB4A81114BC080910E2880FFF7
:101B3A0009C081EE92E30E94E64C80910E288E7FC6
:101B4A0080930E2880910E288B7F80930E2838C0B0
:101B5A0088819981892BA1F1CB010E94E94230C089
:101B6A00FB01ED59FF4F808181112AC03197808195
:101B7A001F928F9380E99CE79F938F9382EF98E25D
:101B8A009F938F930E948A47BE018CE798E20E9436
:101B9A005C53BE016F5D7F4F8DE998E20E945C53F2
:101BAA0081E08093413440E050E0BA018FEF92E344
:101BBA000E94FE2E0F900F900F900F900F900F9093
:0E1BCA00DF91CF91FF90EF90DF90CF900895C4
:101BD800CF92DF92EF92FF92CF93DF938091092803
:101BE800982F957051F4E0917032F091713263EC56
:101BF80072E38DEC92E309951FC083FD1DC0E0914F
:101C08007C32F0917D320995811116C080910928A6
:101C180081FD12C040E157E260E070E08DEC92E394
:101C28000E94FE2E80910E288F7780930E28809137
:101C3800092888608093092880910E2881FD0BC0AF
:101C4800E0917C32F0917D320995882309F4E3C054
:101C58000E94AC54E0C00E94A954DC015096ED915A
:101C6800FC9151978081082E000C990B0E942E52EE
:101C7800C82F0E947C496B017C010E947F52672B10
:101C8800682B692B09F1E0917C32F0917D3209953E
:101C98008823D1F080910E28806880930E28809147
:101CA800D1339091D233A091D333B091D433C816A5
:101CB800D906EA06FB0641F0C092D133D092D2335E
:101CC800E092D333F092D433C23009F4A4C030F098
:101CD800C33009F1C43009F099C09DC00E941B456A
:101CE80060910A2870910B2880910C2890910D28FA
:101CF800E0917232F091733209958F3F31F48091FF
:101D08000E28846080930E2886C080910E288061FA
:101D180080930E2880C0E0917E32F0917F32099541
:101D2800882331F0E0917432F0917532099573C0CF
:101D38000E94A954EC010E94FA05873071F00E94B4
:101D4800B254823019F0843021F007C00E94B55493
:101D580004C00E947F520E948852CE010E94BD009A
:101D68000E94B2540E94A954FC01C484D5840E94E4
:101D7800A954DC011896ED90FC9019970E94A9547B
:101D8800DC015096ED91FC915197808120E030E084
:101D9800A601B701082E000C990B0E94B632E091FB
:101DA8007C32F0917D3209958823A9F180910E2823
:101DB8008F7E8B7F80930E288DEC92E30E94E64CF9
:101DC80083EC92E30E94E64C809109288B7F877F01
:101DD8008093092884FF05C0E0917632F09177322C
:101DE80009950E947C4961317E40810591059CF0EE
:101DF800E0917A32F0917B320995E889F9898081FE
:101E0800082E000C990B0E942C4605C080910E28C4
:101E1800846080930E2864EF71E080E090E0DF91A9
:0C1E2800CF91FF90EF90DF90CF900895D5
:101E3400CF92DF92EF92FF920E947F526B017C015E
:101E44000E946F53882309F487C02091F1333091A5
:101E5400F2334091F3335091F433C701B6010E9439
:101E6400D95416161706180619060CF086C0C09227
:101E7400F133D092F233E092F333F092F433EFE3A0
:101E8400F0E380E5DF011D928A95E9F78FE498E29B
:101E94009F938F9385E492E89F938F93FF93EF939F
:101EA4000E948A4780910E280F900F900F900F90F8
:101EB4000F900F9081FFCFC00E942D407C010E94A3
:101EC4009B54482FE92FC701FF2024F48827992722
:101ED4008E199F0924E630E0B9010E94224D9F9398
:101EE4008F93C701B9010E94224D7F936F93EF93A3
:101EF4004F9380E592E89F938F938AE09DE29F93AE
:101F04008F930E948A47AC018DB79EB70A968DBF06
:101F14009EBF141615068CF56AE07DE28FE390E30C
:101F24000E94695380915E34882321F0815080930C
:101F34005E3423C0E2EBF3E384EF91E0A0E0B0E091
:101F440080839183A283B38384839583A683B78399
:101F5400CF010E945E1411C0E2EBF3E31082118200
:101F64001282138281E090E0A0E0B0E08483958344
:101F7400A683B783CF010E945E1480910E2883FD4F
:101F840042C081FF11C0E4ECF3E381E090E0A0E003
:101F9400B0E080839183A283B38314821582168276
:101FA4001782CF010E945E1480910E2884FD2BC0FD
:101FB4000E946F53882391F0EBEBF3E381E090E010
:101FC400A0E0B0E080839183A283B383148215825E
:101FD40016821782CF010E945E1415C080910E28CC
:101FE40088238CF4EBEBF3E38AEF90E0A0E0B0E01D
:101FF40080839183A283B38384839583A683B783E9
:10200400CF010E945E1480910E2882FF12C0E9EA7B
:10201400F3E381E090E0A0E0B0E080839183A283C9
:10202400B3831482158216821782CF010E945E1434
:1020340017C0E9EAF3E3108211821282138281E06D
:1020440090E0A0E0B0E084839583A683B783CF01BA
:102054000E945E1405C080910E2883FFA5CFD3CFC4
:1020640064E670E080E090E0FF90EF90DF90CF9026
:022074000895CD
:102076004F925F926F927F928F929F92AF92BF9292
:10208600FF920F931F93CF93DF9300D000D0CDB76D
:10209600DEB7F82EB62E29013A0120E030E0A9017C
:1020A6006CE070E0CB010E94323920E030E0A901FB
:1020B6006CE870E180E090E00E94323920E030E088
:1020C600A9016CEA77E082E090E00E94323921E0D3
:1020D60030E040E050E068E171E180E090E00E948D
:1020E600E5378111BFC020E034E040E050E060E019
:1020F60074E180E090E00E94E5378111B5C064E1AB
:1021060070E180E090E00E946B459923C4F76CEB88
:1021160077E082E090E00E946B4560FD19C00FEC0D
:1021260017E061E070E080E090E00E9498496CE082
:1021360070E0CB010E946B456E39704D8D4A90411F
:1021460021F00150110968F703C0012B09F48EC074
:10215600FF2079F02DE735ED4CE15CE36CEA77E0A2
:1021660082E090E00E943239812C912C54019394A4
:102176000DC0BB2039F0812C912C5401689487F84E
:10218600939404C0812C912C54019394A301920141
:102196006CE870E180E090E00E9432390E942C22C7
:1021A600DC01CB019F70AA27BB27803A9340A1058B
:1021B600B10510F0689481F8A501940160EA74E114
:1021C60080E090E00E943239AE014F5F5F4F60EAD7
:1021D60074E180E090E00E94E04D811109C08981A0
:1021E6009A81AB81BC8188169906AA06BB0621F79F
:1021F60021E63FE242E55FEE6CE070E0CB010E9433
:10220600323900ED17E062E070E080E090E00E9475
:102216009849F11017C06CE870E180E090E00E94E8
:102226006B456633764283459240B9F420E030E050
:10223600A9016CE870E180E090E00E9432390E94CA
:10224600EA4817C06CEA77E082E090E00E946B45AE
:10225600633C714C8D45974D59F00150110999F623
:1022660080E007C080E005C080E003C080E001C0D8
:1022760081E02496CDBFDEBFDF91CF911F910F91F4
:10228600FF90BF90AF909F908F907F906F905F90E0
:042296004F900895C8
:10229A00EF92FF920F931F93CF93DF93CDB7DEB7E1
:1022AA00C854D109CDBFDEBF88230CF4E3C0211581
:1022BA00310509F4E1C0E82E082E000CFF089BE066
:1022CA008902D0011124AE59B04D18969C919923D8
:1022DA0009F4D4C0D901623009F0A8C087300CF0E3
:1022EA00CFC09BE09E9DF0019F9DF00D1124EE59F9
:1022FA00F04D918590FFC6C04130E1F42D913C919B
:10230A00232B61F08BE08E9DF0018F9DF00D11243F
:10231A00EE59F04D9260918780E0B9C08BE08E9DB6
:10232A00F0018F9DF00D1124EE59F04D9D7F91879C
:10233A0080E0ADC04330E1F42D913C91232B61F054
:10234A008BE08E9DF0018F9DF00D1124EE59F04D1A
:10235A009061918780E09BC08BE08E9DF0018F9DFC
:10236A00F00D1124EE59F04D9F7E918780E08FC0C9
:10237A004430E1F42D913C91232B61F08BE08E9D4A
:10238A00F0018F9DF00D1124EE59F04D9064918764
:10239A0080E07DC08BE08E9DF0018F9DF00D1124B1
:1023AA00EE59F04D9F7B918780E071C0423009F071
:1023BA006BC00034110508F069C089838BE08E9DDB
:1023CA00F0018F9DF00D1124EE59F04D8481958115
:1023DA008B839C8382E08A83A80160E070E04D834E
:1023EA005E836F83788780E4F901DE011996019094
:1023FA000D928A95E1F728E430E0AE014F5F5F4F16
:10240A0061E582E00E94944C8D3F61F428E430E05B
:10241A00AE014F5F5F4F61ED82E00E94944C8111E3
:10242A0003C035C080E033C082EF31C04E838D8354
:10243A008D919D910D90BC91A02D89839A83AB8338
:10244A00BC838BE08E9DF0018F9DF00D1124EE5917
:10245A00F04D848195818F83988728E030E0AE0122
:10246A004F5F5F4F6FE482E00E94944C882379F0BB
:10247A0087EF0DC08AEF0BC08AEF09C08AEF07C049
:10248A008AEF05C08AEF03C08AEF01C08AEFC85BF2
:10249A00DF4FCDBFDEBFDF91CF911F910F91FF902C
:0424AA00EF90089512
:1024AE004F4B0D00646562756720706172616D65DA
:1024BE00746572206D757374206265206265747721
:1024CE0065656E203020284C656173742920616E1D
:1024DE0064203420284D6F737429200D00342E3162
:1024EE002E30007625730D0A0400312E302E310069
:1024FE0025730D0A0400556E6B6E6F776E2E0D0AE6
:10250E0004004572726F722067657474696E67207D
:10251E005468696E67204E616D652E0D0A04002C9D
:10252E00002564004F4B0D0A04004572726F722E27
:10253E002057692D466920636F6D6D616E6420664C
:10254E006F726D61742069732077696669203C73C0
:10255E007369643E5B2C3C706173733E2C5B6175DA
:10256E007468547970655D5D0D0A04002D2D2D2D56
:10257E002D2D2D2D2D2D2D2D2D2D2D2D2D2D2D2D7D
:10258E002D2D2D2D2D2D2D2D2D2D2D2D2D2D2D2D6D
:10259E002D2D2D2D2D2D2D2D0D0A556E6B6E6F772C
:1025AE006E20636F6D6D616E642E204C69737420A6
:1025BE006F6620617661696C61626C6520636F6D18
:1025CE006D616E64733A0D0A72657365740D0A64FB
:1025DE0065766963650D0A7468696E670D0A7265C2
:1025EE00636F6E6E6563740D0A76657273696F6ED6
:1025FE000D0A636C695F76657273696F6E0D0A778B
:10260E00696669203C737369643E5B2C3C70617330
:10261E00733E2C5B61757468547970655D5D0D0A4F
:10262E0064656275670D0A2D2D2D2D2D2D2D2D2DE9
:10263E002D2D2D2D2D2D2D2D2D2D2D2D2D2D2D2DBC
:10264E002D2D2D2D2D2D2D2D2D2D2D2D2D2D2D2DAC
:10265E002D2D2D0D0A04000D0A436F6D6D616E64F4
:10266E0020746F6F206C6F6E670D007265736574EA
:10267E00007265636F6E6E656374007769666900DC
:10268E007468696E670064657669636500636C697A
:10269E005F76657273696F6E0076657273696F6EC1
:0726AE00006465627567001E
:0126B500FF25
:1026B600CF92DF92EF92FF921F93CF93DF93CDB726
:1026C600DEB72697CDBFDEBF1B821C821D821E820F
:1026D6006DE275E60E944C5489839A83009709F44B
:1026E600C7C09E012F5F3F4F790110E0F70181932C
:1026F60091937F011F5F6DE275E680E090E00E9496
:102706004C54009719F0133089F7C3C0E980FA805A
:10271600E114F10409F4B5C08B819C81009729F47A
:102726008D819E81892B81F415C02D813E81232BBD
:1027360059F40E949F549EEF980F923008F498C067
:10274600813041F012E016C08D819E810E949F5417
:10275600182F97C040E250E0B7018CE798E20E943C
:10276600B24F10929D2881E390E08093F2289093D7
:10277600F32824C040E250E0B7018CE798E20E94BB
:10278600B24F6B817C8140E450E08DE998E20E9473
:10279600B24F1F921F938FE295E69F938F9382EF1E
:1027A60098E29F938F930E948A470F900F900F9005
:1027B6000F900F900F90112309F45AC082E395E60B
:1027C6009F938F930E94EB4B0E946F530F900F9035
:1027D600882321F00E94A9540E94364E80910E282B
:1027E60088233CF48F7780930E280E94A9540E9478
:1027F60074390E94CF4FE2EBF3E31082118212820A
:102806001382C12CD12C7601C394C482D582E68270
:10281600F782CF010E945E14E9EAF3E31082118287
:1028260012821382C482D582E682F782CF010E9489
:102836005E14EBEBF3E31082118212821382C482E0
:10284600D582E682F782CF010E945E14E4ECF3E3C0
:102856008AEF90E0A0E0B0E080839183A283B38307
:1028660084839583A683B783CF010E945E1418C024
:1028760088E395E69F938F930E94EB4B0F900F9002
:102886000FC0113009F466CF98F3143008F472CFF4
:10289600EFCFE980FA80E114F10409F03DCF6ACF69
:1028A6002696CDBFDEBFDF91CF911F91FF90EF90AF
:0628B600DF90CF900895B1
:1028BC00CF93DF93EC018885813009F47DC008F457
:1028CC00B6C08230F1F1833009F0EBC085E993E3B7
:1028DC000E94E64C8FE993E30E94E64C8C819D812B
:1028EC00AE81BF81892B8A2B8B2B21F488E08093BE
:1028FC006604D7C088819981AA81BB81892B8A2BD8
:10290C008B2B21F488E080936504CBC0AFE9B3E353
:10291C001296CD93DC931397E5E9F3E3C283D3834B
:10292C008AE19FE48D939C9311978AE09FE48083C6
:10293C009183488159816A817B81CD010E94FE2E51
:10294C00B0C081E893E30E94E64C8BE893E30E94CD
:10295C00E64C8C819D81AE81BF81892B8A2B8B2B80
:10296C0021F484E0809366049CC088819981AA81BB
:10297C00BB81892B8A2B8B2B21F484E080936504FB
:10298C0090C0ABE8B3E31296CD93DC931397E1E8D8
:10299C00F3E3C283D3838AEF9EE48D939C931197C8
:1029AC008AEE9EE480839183488159816A817B8180
:1029BC00CD010E94FE2E75C08DE693E30E94E64C7D
:1029CC0087E793E30E94E64C8C819D81AE81BF81A9
:1029DC00892B8A2B8B2B21F482E08093660461C0B7
:1029EC0088819981AA81BB81892B8A2B8B2B21F41D
:1029FC0082E08093650455C0A7E7B3E31296CD93AC
:102A0C00DC931397EDE6F3E3C283D3838AED9EE464
:102A1C008D939C9311978AEC9EE4808391834881DB
:102A2C0059816A817B81CD010E94FE2E3AC089E5D5
:102A3C0093E30E94E64C83E693E30E94E64C8C8180
:102A4C009D81AE81BF81892B8A2B8B2B21F481E058
:102A5C008093660426C088819981AA81BB81892BC9
:102A6C008A2B8B2B21F481E0809365041AC0A3E69A
:102A7C00B3E31296CD93DC931397E9E5F3E3C283AA
:102A8C00D3838AEB9EE48D939C9311978AEA9EE400
:102A9C0080839183488159816A817B81CD010E9419
:082AAC00FE2EDF91CF91089589
:102AB4002F923F924F925F926F927F928F929F924A
:102AC400AF92BF92CF92DF92EF92FF920F931F9338
:102AD400CF93DF93CDB7DEB72C97CDBFDEBF962F54
:102AE4009F779A8389830115110539F0F701389688
:102AF400EC0DFD1DEB83FC8304C0F9013896EB83D8
:102B0400FC83EB81FC81ED33F64008F0ABC0360169
:102B1400680149015A01162F082F0E941D4B81118B
:102B2400A3C02B813C81C901A0E0B0E0DC0199275E
:102B34008827802B9C01AD01312B2D833E834F834D
:102B440058876CE870E180E090E00E94323922E01E
:102B540030E040E050E068E770E180E090E00E94FF
:102B6400323919861A861B861C8607EE13E0AE01DD
:102B74004B5F5F4F68E770E180E090E00E94E04DBA
:102B84000E94CA54882321F00E94B94A8FEF6DC075
:102B94008D8181FD0AC0AE01475F5F4F60E074E044
:102BA40085E190E00E94E04D0DC0053F81E01807EB
:102BB40030F461E070E080E090E00E9498490150B8
:102BC4001109A8F60E94CA54811109C029843A84C3
:102BD4004B845C84211431044104510421F40E9487
:102BE400B94A8DEF42C028E030E0AE014F5F5F4F3D
:102BF400C201B1010E94622388E0280E311C411CED
:102C0400511CA114B10431F09401A501C201B10118
:102C14000E946223C114D10451F0C201B101660DB6
:102C2400771D811D911D9701A6010E94622389854C
:102C34009A85AB85BC85880F991FAA1FBB1F880F77
:102C4400991FAA1FBB1F9C01AD0122606CE670E1B5
:102C540080E090E00E9432390E94B94A0E94CA542E
:102C6400819503C08FEF01C08FEF2C96CDBFDEBFDF
:102C7400DF91CF911F910F91FF90EF90DF90CF9054
:102C8400BF90AF909F908F907F906F905F904F9088
:062C94003F902F9008950F
:102C9A008F929F92AF92BF92CF92DF92EF92FF9262
:102CAA000F931F93CF93DF938C01DC011696CD907F
:102CBA00DD90ED90FC901997C0910B34D0910C34B3
:102CCA0014961D921C9215978091D9339091DA33FC
:102CDA00A091DB33B091DC33C816D906EA06FB06AD
:102CEA0008F065C08090D9339090DA33A090DB3336
:102CFA00B090DC3380914334882329F10E941A541E
:102D0A00A0E0B0E04091D5335091D6336091D733EB
:102D1A007091D83384179507A607B70720F48FEF69
:102D2A009FEFA0E0B0E04091D5335091D633609147
:102D3A00D7337091D833841A950AA60AB70A880E2F
:102D4A00991EAA1EBB1E209791F0FE0186819781CB
:102D5A00A085B18588199909AA09BB098683978331
:102D6A00A087B1870480F581E02D309779F78091AB
:102D7A00D9339091DA33A091DB33B091DC338819DF
:102D8A009909AA09BB098093D9339093DA33A0939E
:102D9A00DB33B093DC33BFEFEB1AFB0AC818D90850
:102DAA00EA08FB08F801C682D782E086F1862097F6
:102DBA0041F18E819F81A885B985C816D906EA0690
:102DCA00FB0658F41EC086819781A085B185C81676
:102DDA00D906EA06FB06C0F1EF01EC81FD813097C6
:102DEA0091F732C080910D3390910E33D801149629
:102DFA008D939C93159700930B3410930C3481E0B8
:102E0A002BC01092D5331092D6331092D73310922A
:102E1A00D83380E090E00E94F5500E94935380914D
:102E2A00D5339091D633A091D733B091D8330E943D
:102E3A00F5500E94935380910B3490910C34B3E374
:102E4A0089309B0799F6CECFD8011496ED93FC935F
:102E5A0015970C831D8380E0DF91CF911F910F910D
:102E6A00FF90EF90DF90CF90BF90AF909F908F90A0
:022E7A000895B9
:102E7C004F925F926F927F928F929F92AF92BF927E
:102E8C00CF92DF92EF92FF920F931F93CF93DF932A
:102E9C00CDB7DEB7CC53D140CDBFDEBFBE016F5F27
:102EAC007F4F20E1DB011D922A95E9F7FE01719617
:102EBC0024E6DF011D922A95E9F7EC59FF4F28EC27
:102ECC00DF011D922A95E9F78C01085F1F4F41E045
:102EDC0050E0C8010E94D13641E050E0BE016E5F67
:102EEC007F4FC8010E94D1368A818823ACF47E01C1
:102EFC00B3E0EB0EF11C5E01E6E0AE0EB11C41E05E
:102F0C0050E0B701C8010E94D136F7018081FFEF74
:102F1C00EF1AFF0A88236CF0FE013296412C512CDB
:102F2C003201C12CD12C7601C394812C912C5401EB
:102F3C0004C0EA14FB0419F7EFCFA191AF77B0E00E
:102F4C00A70196010E942C51460E571E681E791E31
:102F5C00CC0CDD1CEE1CFF1CCC0CDD1CEE1CFF1C79
:102F6C00CC0CDD1CEE1CFF1CCC0CDD1CEE1CFF1C69
:102F7C00CC0CDD1CEE1CFF1CCC0CDD1CEE1CFF1C59
:102F8C00CC0CDD1CEE1CFF1C8FEF881A980AA80ACB
:102F9C00B80A99F2DF0111978C91882374F242E000
:102FAC0050E0BE016A5F7F4FC8010E94D136BE015E
:102FBC006F5E7F4F688779874E815F8154274527E5
:102FCC005427C8010E94D1368E819F81982789276A
:102FDC0098274EEF5FEF6FEF7FEF481B590B61099E
:102FEC007109440D551D661D771DCE018B589F4FE1
:102FFC008D879E87BC01C8010E94D1360E94065461
:10300C00FC01892B29F06D857E858885998509952C
:10301C00C8010E94DD5283E0C45CDE4FCDBFDEBF31
:10302C00DF91CF911F910F91FF90EF90DF90CF9098
:10303C00BF90AF909F908F907F906F905F904F90CC
:02304C000895E5
:10304E002F923F924F925F926F927F928F929F92AA
:10305E00AF92BF92CF92DF92EF92FF920F931F9398
:10306E00CF93DF93CDB7DEB7A597CDBFDEBF198265
:10307E001A82833008F0A1C0823021F460317105CC
:10308E0008F09DC00115110509F49BC021153105ED
:10309E0009F499C0680119012A016CA37DA38BA3C1
:1030AE00AE014F5F5F4F0E94A32B81118FC029810C
:1030BE003A81C801840D951D2817390708F485C07B
:1030CE0032017694679476946794769467947694A6
:1030DE006794769467946894FF24F5F8812C912C6C
:1030EE00A12CB12C80E2F8121CC089819A81930127
:1030FE00220F331F22953295307F3227207F3227C1
:10310E00821B930B809768F442018A0C9B1C969449
:10311E0087949694879497E0892299246894FF2443
:10312E00F2F8EF2C8E010D5F1F4F282D462D6CA14E
:10313E007DA18BA10E945E2A811148C0C301880F18
:10314E00991F880F991F880F991F880D991D880F39
:10315E00991F880F991F8415950520F4B201681BDD
:10316E00790B02C060E070E08F2D90E0861B970B0C
:10317E0086010A191B098017910708F48C0183E058
:10318E0090E08C0F9D1F680F791FA801C1018A0D59
:10319E009B1D0E949A52A00EB11E90E2F91204C01D
:1031AE008FEF681A780A03C09FEF891A990AAC1438
:1031BE00BD0408F497CF80E009C082EE07C082EE0E
:1031CE0005C080E003C082EE01C082EEA596CDBFA1
:1031DE00DEBFDF91CF911F910F91FF90EF90DF90A7
:1031EE00CF90BF90AF909F908F907F906F905F9099
:0831FE004F903F902F900895BF
:103206002F923F924F925F926F927F928F929F92F0
:10321600AF92BF92CF92DF92EF92FF920F931F93DE
:10322600CF93DF93F12C0CE813EED8011696CD91CF
:10323600DC9117970F2EF4E1AF2EFDEDBF2EF02D8A
:103246000F2EFAE78F2EF5E69F2EF02D0F2EFDE0BE
:103256003F2EF02D84C0D801ED91FC9109958D305B
:1032660021F08A3009F06BC07FC0E0913F34F0E076
:10327600E552F04D108280913E34811154C07FC0DA
:1032860090913D3480933D349D3009F453C0F11044
:1032960051C060E270E08BED9FE20E9437513C0125
:1032A600009719F0FC0111923F01EBEDFFE201904E
:1032B6000020E9F73197EB5DFF422E2E0F2EF4EF3B
:1032C600EF2EFCEDFF2EF02DD701CD90DC90B60150
:1032D6008BED9FE20E94A352F60101900020E9F7D0
:1032E6003197EC19FD0981110CC02E120AC0D701C5
:1032F6001296ED91FC911397309719F0C301099539
:103306000CC0B4E0EB0EF11CEA14FB04E9F69F9244
:103316008F920E94EB4B0F900F9080913E34882342
:1033260039F0FF24F39485E696E60E94353A02C00A
:10333600FF24F39410923F3410923E3410C0E09173
:103346003F34E43648F491E09E0F90933F34F0E02A
:10335600E552F04D808303C081E080933E34FE0148
:103366000995811178CF0EC0E0913F34F0E0E55227
:10337600F04D108290913E349111D5CF81CF30928D
:103386003D3485CF62E370E080E090E0DF91CF913D
:103396001F910F91FF90EF90DF90CF90BF90AF906D
:1033A6009F908F907F906F905F904F903F902F905F
:0233B600089578
:1033B800FF920F931F93CF93DF9300D000D0CDB728
:1033C800DEB7029709F0B5C0613009F044C020911A
:1033D8005C34022F10E0C801019667E070E00E949B
:1033E800224D80935C349BE0909FF001919FF00DFB
:1033F8001124EE59F04D9085911109C08BE0809F02
:10340800F001819FF00D1124EE59F04D1BC0282FBB
:1034180036E00F2EFBE0FF2EF02D07E010E0822FA4
:1034280090E0F89EF001F99EF00D1124EE59F04D50
:103438000196B8010E94224D582F9085911104C021
:1034480050935C34122F45C03150282F41F75093C8
:103458005C341FEF3EC0623009F06DC020915B34D0
:10346800822F90E03BE0239FF0011124E155F04DBD
:10347800019683709078992324F401978C6F9F6F3D
:10348800019680935B3430853323D1F0282F33E0C5
:103498006BE0822F90E0689FF001699FF00D112486
:1034A800E155F04D019683709078992324F40197A3
:1034B8008C6F9F6F01965085511105C080935B34C6
:1034C80017E0120F06C03150282F19F780935B348C
:1034D8001FEF309789F18BE0DF011D928A95E9F79C
:1034E80081E080878091393490913A349C012F5F34
:1034F8003F4F29F02093393430933A3405C002966F
:103508008093393490933A348091393490913A3495
:103518008483958340FF10C0198381E2818724E06A
:1035280030E0AE014F5F5F4F60E582E00E94944C4F
:1035380003C01FEF01C01FEF812F2496CDBFDEBF50
:0C354800DF91CF911F910F91FF9008952B
:10355400A8E0B0E0E0EBFAE10C940E4B8B01FC0127
:10356400608171818281938120E831E541E050E0FE
:103574000E94684769017A012CE330E040E050E0A2
:103584000E947C4B29833A834B835C8389819A8193
:10359400AB81BC81F80160836CE370E00E94224D32
:1035A400DC01CB01F801A1838283C601069667E0A2
:1035B40070E00E940E4D84832DEA3EE840E050E026
:1035C400C701B6010E947C4B29833A836D837E83B5
:1035D4008F83988789819A8124E6289F6001299F97
:1035E400D00C11246D817E818F81988525EB35E087
:1035F40040E050E00E947C4B29833A836D837E83B4
:10360400E980FA80EE0CFF1CEE0CFF1CEC0CFD1C98
:103614008D819E81F5E6EF16F10410F0019604C049
:1036240024E6E216F10419F021E030E002C020E0C3
:1036340030E0A90144595E4F4817590768F46DE614
:1036440071E0821B930B0E94224DDC01CB01E80E3A
:10365400F91ECD0120E030E044E6E40EF11CF8014F
:10366400E682F78280879187255C3F4F8217930714
:1036740048F46FE170E00E94224DDC01CB01F801B7
:10368400858322C069E970E0821B930B0E94224D5E
:10369400DC01CB01F82EFF0CFF0CF80E6DE370E09B
:1036A400CD010E94224DDC01CB01E82EEE0C6FE12E
:1036B40070E0CD010E94224DDC01CB0122E0280FF5
:1036C400F20EFE0CF801F582A383F801128613862C
:0E36D40083818F5F83832896E8E00C94574B28
:1036E200CF92DF92EF92FF92CF93DF93CDB7DEB707
:1036F200C057D109CDBFDEBF69017A01863059F1C9
:10370200873009F440C0813009F09FC020E730E0E3
:10371200AE014F5F5F4FC701B6010E94F5398111BB
:1037220094C0E0912F34F0913034309709F48DC079
:1037320080E7C80ED11CE11CF11CC092E933D09283
:10374200EA33E092EB33F092EC33BE016F5F7F4FCE
:1037520081E009957AC024E030E0AE014F5F5F4F0F
:10376200C701B6010E94F53981116FC0E0912F3473
:10377200F0913034309709F468C0BE016F5F7F4F1B
:1037820086E0099562C028E030E0AE014F5F5F4FEE
:10379200C701B6010E94F53981114DC02D813E81CC
:1037A2008F8198856B817C8149815A8121153105F0
:1037B20099F421E0209357348617970709F020E007
:1037C200CA01992781309105A1F1C8F08230910593
:1037D200E9F00397F1F02AC0820F931F21E08617C8
:1037E200970709F020E0CA0199278130910509F174
:1037F20030F08230910551F0039759F013C0809157
:1038020057348130B1F44093573413C04093573446
:1038120010C080915734823061F0843051F040936F
:10382200573407C080915734823019F084E0809376
:103832005734222351F0E0912F34F09130343097F5
:1038420021F067E574E387E00995C059DF4FCDBFEA
:10385200DEBFDF91CF91FF90EF90DF90CF90089580
:103862001F93CF93DF93CDB7DEB72897CDBFDEBFCF
:103872000E944753182F882309F4A0C0AE014F5F5E
:103882005F4F60E770E180E090E00E94E04D8111BF
:1038920084C089819A81AB81BC8180FF80C09C01F8
:1038A200AD012E7F29833A834B835C8360E770E10D
:1038B20080E090E00E943239811173C089819A813F
:1038C200AB81BC81B695A79597958795B695A79537
:1038D200979587959F7080932D3490932E34892BE2
:1038E20009F461C041EE53E364E870E180E090E0E6
:1038F2000E94E04D811159C06091E1337091E23331
:103902008091E3339091E43324E030E0AE014B5FE9
:103912005F4F0E94582F182F811149C06F817885FF
:1039220080912D3490912E34861B970B059708F0C9
:1039320040C0ED818FEF8E0F8730E8F58091E13343
:103942009091E233A091E333B091E4339C01AD0155
:10395200285F3F4F4F4F5F4F68507109F0E0EE0F05
:10396200FF1FE656F9410190F081E02D8E81099505
:1039720081E00E94BF4B22E030E040E050E060E78F
:1039820070E180E090E00E94E53780E00E94BF4B4A
:103992000E94CA54882391F010C014EF0FC014EF94
:1039A2000DC014EF0BC01EEF09C014EF07C014EFD7
:1039B20005C01AEF03C014EF01C014EF812F28963F
:0C39C200CDBFDEBFDF91CF911F910895B3
:1039CE00CF92DF92EF92FF920F931F93CF93DF93DD
:1039DE00CDB7DEB76097CDBFDEBF6B017C0185E74B
:1039EE0093E50E94584E60E070EA80E090E00E94FD
:1039FE00D24AC114D104E104F10409F485C082E075
:103A0E0090E089839A8383EB92E20E9467548B83C2
:103A1E009C83CD82DE82EF82F8860E94A9546C01CF
:103A2E00DC015096ED91FC9151978081082E000C8F
:103A3E00990B0E942E5281111CC0F601008911892A
:103A4E0041E050E061E070E082E090E00E94F941D8
:103A5E00D8018C93D6015096ED91FC9151978081AF
:103A6E0088233CF00E944345009719F021E0FC01A9
:103A7E002483D6015096ED91FC9151978081082EAA
:103A8E00000C990B0E942E528130E1F5EBE1F8E229
:103A9E0001900020E9F731978F010B511842D601A2
:103AAE005096ED91FC91519780812BE138E242E0E6
:103ABE0050E062E070E0082E000C990B0E94563325
:103ACE00F82E811122C0D6015096ED91FC9151979E
:103ADE00808140E150E0BE016F5F7F4F082E000CE9
:103AEE00990B0E948328F82E882379F0D6015096E0
:103AFE00ED91FC9151978081082E000C990B0E943C
:103B0E002C4603C0F12C01C0F12C8F2D6096CDBF39
:103B1E00DEBFDF91CF911F910F91FF90EF90DF905D
:043B2E00CF90089597
:103B3200EF92FF920F931F93CF93DF93CDB7DEB730
:103B4200C25CD109CDBFDEBF8C01CF53DF4F1882DB
:103B52001982C15CD04081E090E08B839C83F801A4
:103B6200808191818330910501F130F4813091059A
:103B720051F0029731F15BC08430910509F445C0E0
:103B82000597A1F154C0AE01435F5F4FBE016F5A6A
:103B92007F4FC8010C960E947529082E000C990BC4
:103BA2008B839C83E12CF12C44C0CE010D960E94A4
:103BB200AE38082E000C990B8B839C83E12CF12CE0
:103BC20038C0AE014F5A5F4FB801645F7F4FF801B2
:103BD200E25BFF4F808191810E94F253082E000C1C
:103BE200990B8B839C83E12CF12C23C0F801648513
:103BF2007585868597850E940D26082E000C990BE7
:103C02008B839C83E12CF12C14C07E01F1E7EF0E33
:103C1200F11CAE014F535F4FB701C8010C960E94D1
:103C2200093E082E000C990B8B839C8302C0E12C69
:103C3200F12CF8018081918189839A838481958115
:103C4200A681B7818D839E83AF83B8878085918556
:103C5200A285B38589879A87AB87BC870E94525217
:103C6200CF53DF4F48815981C15CD0406E2D7F2DEB
:103C7200CE0101960E94EA49CE53DF4FCDBFDEBF8F
:0E3C8200DF91CF911F910F91FF90EF90089569
:103C90002564002A2E706F6F6C2E6E74702E6F72FA
:103CA00067005468696E67204E616D6520697320F6
:103CB0006E6F742070726573656E742C20657272FD
:103CC0006F7220747970652025642C20757365727D
:103CD00020646566696E6564207468696E67204952
:103CE0004420697320757365641B5B306D005468F4
:103CF000696E67204E616D65207265616420667231
:103D00006F6D2074686520646576696365206973EA
:103D10002025731B5B306D0041575320456E647046
:103D20006F696E74206973206E6F74207072657392
:103D3000656E7420696E2057494E432C2065697466
:103D40006865722072652D70726F766973696F6E27
:103D5000206F72206D6963726F63686970204157CC
:103D6000532073616E64626F7820656E64706F6952
:103D70006E742077696C6C20626520757365641BB6
:103D80005B306D0041575320456E64706F696E74EF
:103D900020726561642066726F6D2057494E432022
:103DA00069732025731B5B306D004D4348502E49CD
:103DB0004F542E414343455353504F494E540000F6
:103DC00000000000000000000000003132333435F4
:103DD00036373839300000000000000000000000D5
:063DE000000000000000DD
:103DE6004F925F926F927F928F929F92AF92BF9205
:103DF600EF92FF920F931F93CF93DF9300D000D0E3
:103E0600CDB7DEB77C0148015901742E66245524CE
:103E16004424872F9927AA27BB27482A592A6A2A82
:103E26007B2A8BE0482ADB01CA018827AA27BB2701
:103E3600BA2FA92F982F8827482A592A6A2A7B2A17
:103E4600442755277727452F562F672F7727442A4C
:103E5600552A662A772AA901980168E072E081E06E
:103E660090E00E943239A30192016CE072E081E099
:103E760090E00E94323925EA30E040E050E060E10F
:103E860072E081E090E00E9432392FE130E040E0BC
:103E960050E064E172E081E090E00E94323920E077
:103EA60030E04DE050E06CE172E081E090E00E948D
:103EB600323925E830E040E050E064E072E081E02D
:103EC60090E00E943239AE014F5F5F4F68E172E0C9
:103ED60081E090E00E94E04D811108C089819A81BD
:103EE600AB81BC810197A105B10569F70E94CA544F
:103EF600882319F00DC084EF0CC09401A70160E07F
:103F060070E08DE090E00E94582F882311F0F3CFE7
:103F160084EF2496CDBFDEBFDF91CF911F910F9125
:103F2600FF90EF90BF90AF909F908F907F906F9093
:063F36005F904F9008951A
:103F3C00A0E0B0E0E4EAFFE10C940A4BEC01EE8166
:103F4C00FF818F0104561109B9F0CF0185569109F3
:103F5C006C0197FF03C023E0C20ED11CD594C7940B
:103F6C00D594C7946CE97FEF0E94224DC60ED71EE4
:103F7C008FEFC81AD80A02C0C12CD12C2DE631E023
:103F8C00D8010E9455530D2C000CEE08FF08C60EEC
:103F9C00D71EE81EF91E8B81082E000C990B8C0184
:103FAC00015011092D8122302CF4222379F1015E6C
:103FBC001F4F2CC0CF018459984F0E94364D282F8B
:103FCC0030E0255C3F4F200F311F8D81082E000CF7
:103FDC00990B02978530910514F027563F4F65E0F9
:103FEC0070E00E94224DAC0197FF02C04F5F5F4F03
:103FFC00559547959DE3949F8001959F100D112435
:10400C00020F131F80FF02C0015E1F4FC801110F6A
:10401C00AA0BBB0B9C01AD012C0D3D1D4E1D5F1D54
:10402C0060E871E581E090E00E942A4F4B015C0151
:10403C00AA810A2E000CBB0B20E13EE00E945553D6
:10404C006B017C01A9810A2E000CBB0B2CE330E028
:10405C000E945553C60ED71EE81EF91E6881862F86
:10406C00660F990BAA0BBB0B8C0D9D1DAE1DBF1DB6
:10407C00BC01CD01680D791D8A1D9B1DCDB7DEB726
:06408C00ECE00C94534B24
:104092000F931F93CF93DF930E94B03E40E054E012
:1040A2008EEDFA01808320E234E0F901108280E48F
:1040B20094E0FC011082C0E6D4E06FE06883A0E8DF
:1040C200B4E01C9200EA14E079E1F801708370E830
:1040D200FA017483F9011482FC0114826C83149630
:1040E2001C921497F8011482FA01108A118A128A1A
:1040F200138A148A158A168A178AF901108A118A74
:10410200128A138A148A158A168A178AFC01108A5F
:10411200118A128A138A148A158A168A178A188AA9
:10412200198A1A8A1B8A1C8A84E08D8B1E8A1F8A2E
:1041320050961C92509751961C92519752961C92EF
:10414200529753961C92539754961C925497559695
:104152001C92559756961C92569757961C92F801A8
:10416200108A88E0818B9BE0928B138A148A858B5C
:10417200868B178AE0EEF5E0118210821482158296
:104182001382128281EF94E580931F34909320343E
:1041920082EF94E580931D3490931E3483EF94E56F
:1041A20080931B3490931C3484EF94E580931934EC
:1041B20090931A3485EF94E58093173490931834D2
:1041C20086EF94E5809315349093163487EF94E547
:1041D2008093133490931434DF91CF911F910F91F8
:0241E20008953E
:1041E4006D656D6F727950696C6C007B22746869BF
:1041F4006E675F6E616D65223A222573227D00240D
:104204006177732F7468696E67732F25732F7368D2
:1042140061646F772F757064617465007B227374B9
:10422400617465223A7B227265706F7274656422D0
:104234003A7B22746F67676C65223A25647D7D7DC5
:104244000025732F73656E736F7273007B224C6944
:10425400676874223A25642C2254656D70223A25CD
:10426400642E253032647D00246177732F7468696D
:104274006E67732F25732F736861646F772F757062
:10428400646174652F64656C74610022746F676780
:104294006C65223A00746F7069633A2025731B5B66
:1042A400306D007061796C6F61643A2025731B5B1B
:1042B400306D006131677174387374746969676E45
:1042C400332E696F742E75732D656173742D322EC0
:1042D400616D617A6F6E6177732E636F6D005573D4
:1042E400696E6720746865204157532053616E647A
:1042F400626F7820656E64706F696E74203A202551
:10430400731B5B306D004D4348502E494F54006D74
:0C4314006963726F6368697000256400C3
:10432000CF92DF92EF92FF920F931F93CF93DF9381
:10433000CDB7DEB7C75CD109CDBFDEBF4115510592
:1043400009F454C0E0910734F0910834C080D18062
:10435000982F9370923009F062C02115310531F425
:1043600047C00115110509F05EC044C08C836D8300
:104370007E8380E4FA01DE01179601900D928A9502
:10438000E1F780E4F901DE01A95BBF4F01900D92D6
:104390008A95E1F709C083E1F801DE01A95BBF4F0F
:1043A00001900D928A95E1F7BE016F5F7F4FC601C4
:1043B0000E942447811143C06091073470910834F2
:1043C000CE0101960E940928811139C0E114F1043F
:1043D00099F08F81833290F080E2FE013896D70108
:1043E00001900D928A95E1F780E029C082EE27C006
:1043F00082EE25C082EE23C080E021C080E01FC095
:104400008C836D837E8380E4FA01DE011796019030
:104410000D928A95E1F70115110531F2BCCF933069
:1044200009F49FCFEDCF8C836D837E8380E4FA0106
:10443000DE01179601900D928A95E1F7ACCFC95332
:10444000DF4FCDBFDEBFDF91CF911F910F91FF9066
:08445000EF90DF90CF9008957A
:10445800CF92DF92EF92FF92CF93DF9300D000D0FC
:10446800CDB7DEB7C090E533D090E633E090E733C0
:10447800F090E833C114D104E104F10409F078C0E4
:10448800AE014F5F5F4F64EF73E180E090E00E9400
:10449800E04D81116DC045EE53E360E070E180E0CE
:1044A80090E00E94E04D811163C08091E5339091C6
:1044B800E633A091E733B091E833803A22E09207DF
:1044C80020E1A207B105A9F489819A81AB81BC8159
:1044D8000197A105B105C1F181EA92E0A0E1B0E040
:1044E8008093E5339093E633A093E733B093E833B2
:1044F8002BC0803B9240A041B10531F589819A815A
:10450800AB81BC8183309105A105B105E9F0049721
:10451800A105B10569F481EB92E0A0E1B0E08093D8
:10452800E5339093E633A093E733B093E8330CC0B8
:1045380082EB92E0A0E1B0E08093E5339093E6331C
:10454800A093E733B093E833C090E533D090E633D7
:10455800E090E733F090E83380EFE82225E0E22AA4
:10456800C092E533D092E633E092E733F092E83335
:10457800C701B6012496CDBFDEBFDF91CF91FF9072
:08458800EF90DF90CF90089541
:104590008F929F92AF92BF92FF920F931F93CF93F0
:1045A000DF93CDB7DEB7CC56D109CDBFDEBFF82E35
:1045B00049015A0180915F318E3309F442C0F816E7
:1045C00031F00FE511E337C08F1135C002C00FE5A0
:1045D00011E3D80111962D913C91129721153105C7
:1045E00009F45BC0AE014F5F5F4FC501B4010E948B
:1045F000F539811159C0E0913134F091323430975E
:1046000001F1D80111968D919C911297892B71F02F
:10461000B1E1FB1205C010925834898180935A345D
:10462000BE016F5F7F4F8F2D09950BC060E070E07A
:104630008F2D099506C00D5F1F4FF80180818E33C5
:1046400019F6F0E2FF1230C028E030E0AE014B591D
:104650005F4FC501B4010E94F539811125C0AB96A9
:104660002EAD3FADAB97A7964EAD5FADA797C501F9
:10467000B401685F7F4F8F4F9F4F0E94F5398111C2
:1046800013C0E0913134F0913234309769F0BE01BB
:104690006B597F4F80E2099507C0E0913134F0916A
:1046A0003234309771F2C2CFC459DF4FCDBFDEBF75
:1046B000DF91CF911F910F91FF90BF90AF909F908E
:0446C0008F9008953A
:1046C4007F928F929F92AF92BF92CF92DF92EF929E
:1046D400FF920F931F93CF93DF93CDB7DEB7289745
:1046E400CDBFDEBF6A018901FE01319697E0DF018B
:1046F4001D929A95E9F797EC99839091533491110F
:1047040049C091E0909353342130310511F402E013
:1047140010E08A837B836C831E830F8367E0CE0162
:1047240001960E947F4CB82E811137C081EF888793
:1047340001151105D9F1712C6894882485F80F2E80
:10474400F3EF9F2EF02D0F2EF2EFAF2EF02D780108
:104754000130B0E21B0710F0E72CF82C0E191F09EA
:1047640009F4988661E070E0CE0108960E94BF319A
:104774008823C9F0B701C6010E94BF31882399F08C
:10478400A886CE0CDF1C0115110509F70FC0109285
:10479400533412C0BB24B3940FC0BB24B3940CC0D5
:1047A400BB24B39409C0BB24B39406C083EC0E9419
:1047B400F83F882361F3F4CF8B2D2896CDBFDEBF5D
:1047C400DF91CF911F910F91FF90EF90DF90CF90E9
:0C47D400BF90AF909F908F907F90089551
:1047E000CF93DF93EC01E4EDF1E38DE1DF011D9266
:1047F0008A95E9F790819F709061908384E0868329
:104800009DE4978391E5908794E5918792878387CC
:104810008F89988D892B21F48B899C89892B21F094
:1048200082EC8093E03103C082E08093E03144ED7C
:1048300051E38D859E85982789279827FA018587DA
:104840009687A989BA89A18BB28BFD0101900020BE
:10485000E9F79F01215031092A1B3B0BDA011F9612
:104860002D933C9350974091E03146FF09C0898DCC
:104870009A8DFD01818F928F8F89988D878B908F74
:10488000442394F48D899E89E4EDF1E3858B968B26
:104890006B897C89638B748B8789908D860F971FBA
:1048A0000496820F931F01C0C9010C968093EF31CB
:1048B0009093F031407C81F0E4EDF1E38789908DB5
:1048C000982789279827878B908F838994899827A1
:1048D00089279827838B948B32272327322720938D
:1048E000E3313093E43181E080934A34809345345E
:0648F000DF91CF91089555
:1048F600CF92DF92EF920F93CF93DF93CDB7DEB7D0
:104906002B97CDBFDEBFDC01690119821A828B832A
:104916009C836D830E83E11002C082E001C080E0BB
:10492600613248F00CC0FD01E60FF11D9081911136
:1049360003C0362F01C0362F6150A8F73D834230A1
:1049460081F018F4413039F048C0433059F1443011
:1049560009F43FC042C0BE016F5F7F4F0E9401470E
:1049660043C0C114D104D9F11F82188619861A864C
:104976001B86F60101900020E9F73197EC19FD0935
:10498600E034F10519F4CF82D88603C0C986DA86E9
:10499600EB87AE01495F5F4FBE016F5F7F4F0E949D
:1049A6008B2722C0C114D104E1F096012E5F3F4F40
:1049B6002F833887F60191819150998790819A8744
:1049C600AE01495F5F4FBE016F5F7F4F0E94CD2CE6
:1049D6000BC0CD2841F084EF07C081EF05C081EF01
:1049E60003C081EF01C081EF2B96CDBFDEBFDF9103
:0C49F600CF910F91EF90DF90CF900895CB
:104A0200CF92DF92EF92FF920F931F93CF93DF9398
:104A1200CDB7DEB72897CDBFDEBF88230CF45FC0C9
:104A22006115710509F45DC04115510509F45BC0BA
:104A3200A82F082E000CBB0B9BE08902F001112469
:104A4200EE59F04D9085992309F44FC09BE09A9F4F
:104A5200F0019B9FF00D1124EE59F04D608371839C
:104A6200428353839285911142C09BE09A9FF00149
:104A72009B9FF00D1124EE59F04D91E092879185A4
:104A820090FF02C06DE401C066E401151105210525
:104A9200310549F4CC24CA94DC2C7601C982DA822D
:104AA200EB82FC8204C009831A832B833C838D83AF
:104AB2008BE08A9FF0018B9FF00D1124EE59F04D8F
:104AC200848195818F83988728E030E0AE014F5F23
:104AD2005F4F82E00E94944C882361F00AC08AEF03
:104AE20009C08AEF07C08AEF05C08AEF03C080E0E1
:104AF20001C082EF2896CDBFDEBFDF91CF911F911B
:0C4B02000F91FF90EF90DF90CF9008958E
:104B0E00EF92FF920F931F93CF93DF93182F092FDE
:104B1E00F62EE72E8FE498E29F938F938CE692E821
:104B2E009F938F93C1E1D9E2DF93CF930E948A477F
:104B3E0009900020E9F72197AE0141515942612FAA
:104B4E00702F81E199E20E9415500F900F900F90F7
:104B5E000F900F900F90892BB9F56FE872E88F2D9B
:104B6E009E2D0E94544A009779F1FC018185813374
:104B7E00A9F481E080935F34E2EBF3E381E090E00F
:104B8E00A0E0B0E080839183A283B3831482158268
:104B9E0016821782CF010E945E1413C010925F34EA
:104BAE00E2EBF3E3108211821282138281E090E035
:104BBE00A0E0B0E084839583A683B783CF010E94E3
:104BCE005E1482E080935E340F931F9389E992E81E
:104BDE009F938F931F921F920E94693CEF92FF92B8
:104BEE0087EA92E89F938F931F921F920E94693CCF
:104BFE000E94E23C8DB79EB70C968DBF9EBFDF9193
:0C4C0E00CF911F910F91FF90EF9008953F
:104C1A008F929F92AF92BF92CF92DF92EF92FF92C2
:104C2A001F93CF93DF93CDB7DEB7C75ED109CDBF50
:104C3A00DEBFFE01EB56FF4F20E5DF011D922A95EC
:104C4A00E9F7CB51DF4F18821982C55ED040611552
:104C5A0071058105910509F445C04B015C01C12C20
:104C6A00D12C76019E012F5F3F4FAE014B5B5F4F08
:104C7A00BE016B567F4FCE018B519F4F0E947C0B1A
:104C8A00182F811134C0CB51DF4F88819981C55EBD
:104C9A00D0404797E1F4C951DF4F1882C75ED04030
:104CAA009E0129513F4FAE014F5F5F4FBE016B5BC3
:104CBA007F4FCE018B569F4F0E94A32E811114C0A5
:104CCA00C951DF4F8881C75ED040882369F0BFEFA2
:104CDA00CB1ADB0AEB0AFB0A8C149D04AE04BF0450
:104CEA0009F605C014EF03C00E94FA5414EF812F8D
:104CFA00C951DF4FCDBFDEBFDF91CF911F91FF902A
:104D0A00EF90DF90CF90BF90AF909F908F900895D3
:104D1A00CF92DF92EF92FF920F931F93CF93DF937D
:104D2A00CDB7DEB76097CDBFDEBF88230CF45BC07A
:104D3A006115710509F459C0493795E0590708F01A
:104D4A0056C0282F082E000C330B9BE08902F00175
:104D5A001124EE59F04D9085992309F44AC08983AC
:104D6A004B835C839BE0929FF001939FF00D11248B
:104D7A00EE59F04D0480F581E02DED87FE878730EE
:104D8A0034F00F2EF4E4CF2ED12CF02D05C00F2EC7
:104D9A00F0E5CF2ED12CF02D8BE0829FF001839F7E
:104DAA00F00D1124EE59F04D818580FF0CC08BE087
:104DBA00829FF001839FF00D1124EE59F04DC680B9
:104DCA00D7808CE401C085E47A018B01682F606882
:104DDA0020E130E0AE014F5F5F4F82E00E945A153A
:104DEA00882351F008C08AEF07C08AEF05C08AEF0E
:104DFA0003C08AEF01C082EF6096CDBFDEBFDF91AC
:104E0A00CF911F910F91FF90EF90DF90CF9008956F
:104E1A00CF93DF93FC0180E1A0E8B2E3ED011992A0
:104E2A008A95E9F780914534833009F06BC09C91EB
:104E3A009F7090639C93808183FB882780F980FB15
:104E4A0093F99C9380818670997F982B9C939E708E
:104E5A00983019F48C91877F8C939081A0E8B2E303
:104E6A008C9190FB80F98C938781908517968D930E
:104E7A009C93189727813085E90109900020E9F76A
:104E8A00CE010197821B930B15968D939C931697CF
:104E9A0020812695237071F0218519962C931997F4
:104EAA0022851A962C931A9722E030E01E962D93AB
:104EBA003C931F9724853585A0E8B2E31C962D9371
:104ECA003C931D9743851B964C931B971E962D91D9
:104EDA003C911F972E5F3F4F240F311D280F391F1A
:104EEA001E962D933C931F979827892798271596E6
:104EFA008D939C93169780914A34846080934A34A8
:0C4F0A0081E001C080E0DF91CF910895AC
:104F1600CF92DF92EF92FF920F931F93CF93DF937F
:104F2600CDB7DEB7CC59D109CDBFDEBF411551058E
:104F360009F452C07A019B018E0103591F4F4CE6BA
:104F460050E062E00E94FD28811153C0FE013196B7
:104F56008CE6DF011D928A95E9F7F7016081718180
:104F66006115710571F082819381892B79F580E451
:104F7600898340E2CE0102960E94333B811138C0FC
:104F86002DC0628173816115710511F1448141342F
:104F960008F5498350E0CE0102960E949A520F2EE0
:104FA600F0E3CF2ED12CF02D0F2EFCE6EF2EF12CB8
:104FB600F02D8E010F5F1F4F20E330E0AE01435905
:104FC6005F4F6BEB81E00E945A1513C081EF11C051
:104FD60081EF0FC081EF0DC081EF0BC0498150E01A
:104FE600F70160817181CE0102960E949A52D7CF55
:104FF60081EFC456DF4FCDBFDEBFDF91CF911F914A
:0C5006000F91FF90EF90DF90CF90089585
:10501200AF92BF92CF92DF92EF92FF921F93CF9304
:10502200DF9300D0CDB7DEB76C017B01DB016D9160
:105032007C91FC0182810E94B22F811157C0D7015D
:10504200ED91FC911197A280B38012968D919C9163
:1050520013970E94404C182F811142C0F6014181E2
:1050620050E0B601D70112968D919C9113970E9440
:105072002B53182F811134C0B50180E090E00E94BB
:10508200034EB6E0CB0ED11C80ECF60111928A954C
:10509200E9F780EC90E089839A83AE014F5F5F4F1E
:1050A200B601D70112968D919C9113970E943253AB
:1050B200182F811115C089819A818430910520F4BD
:1050C200892B69F417EE0CC0C6010E94FE40182F0E
:1050D200811106C0C6010E949741182F01C016EE29
:1050E200F701828193810E94144E812F0F900F90BD
:1050F200DF91CF911F91FF90EF90DF90CF90BF9003
:04510200AF900895CD
:10510600AF92BF92CF92DF92EF92FF920F931F93CF
:10511600CF93DF93CDB7DEB76097CDBFDEBF8C01EF
:105126006B015A010E9443457C01892B09F44FC04B
:10513600F6018191919189839A832EE0DE0113967F
:1051460001900D922A95E1F70297D9F582E090E059
:1051560089839A834A2DBE016F5F7F4F802F0E94FD
:10516600472E882341F1873F01F18A3F99F51123A4
:1051760034F486E280934B348FEF9FEF2DC0CD2819
:1051860031F481E380934B348FEF9FEF25C0AB283A
:1051960031F486E180934B348FEF9FEF1DC086E29A
:1051A60080934B348FEF9FEF17C085E080934B348D
:1051B6008FEF9FEF11C082E0F701848380E090E0DB
:1051C6000BC08FE280934B348FEF9FEF05C08FEFBC
:1051D6009FEF02C08FEF9FEF6096CDBFDEBFDF91DE
:1051E600CF911F910F91FF90EF90DF90CF90BF90DE
:0451F600AF900895D9
:1051FA000F931F93CF93DF93F901D801445D5F4F5B
:10520A00309709F459C022813381232B09F456C0FF
:10521A009481913208F054C0109709F453C090E376
:10522A00E80119929A95E9F74D935C9311978130A9
:10523A0059F088F0823009F047C012968C91129783
:10524A00826012968C93129712968C9112978160B3
:10525A0012968C93129785818F3F21F413968C9323
:10526A00139706C081508E3088F513968C93139746
:10527A008FEF860F843060F5ED018F016CA7848172
:10528A008C83448150E062817381CD0105960E942E
:10529A009A52F80180819181892BE1F081E08DA3F6
:1052AA00DE0196960190F081E02D86E001900D9244
:1052BA008A95E1F780E00FC081EF0DC081EF0BC046
:1052CA0081EF09C084EF07C081EF05C081EF03C0F9
:1052DA0081EF01C080E0DF91CF911F910F91089576
:1052EA009F92AF92BF92CF92DF92EF92FF920F936B
:1052FA001F93CF93DF936C015B01EA018091CD3359
:10530A009091CE33A091CF33B091D033892B8A2B91
:10531A008B2B41F01092CD331092CE331092CF33B3
:10532A001092D033E0910734F09108340280F3816F
:10533A00E02D0180F281E02D81818330C9F08091D6
:10534A00CD339091CE33A091CF33B091D033019623
:10535A00A11DB11D8093CD339093CE33A093CF334B
:10536A00B093D0336894EE24E1F8F12C912C07C065
:10537A00EE24EA94FE2C0F2EFDE09F2EF02DBE01A6
:10538A00C7010E94C552811111C0C05CDF4F80E283
:10539A0090E08883998300E010E09501A601B701A7
:1053AA00892D0E941431811103C003C084EF01C00A
:1053BA0084EFDF91CF911F910F91FF90EF90DF90D3
:0A53CA00CF90BF90AF909F90089520
:1053D400EF92FF920F931F93CF93DF93D82FC62F93
:1053E4007A010E9443458C01009709F45EC0C630DF
:1053F40009F118F4C53031F058C0C730B1F0C930E4
:10540400A9F153C0E114F10409F44FC0D701119676
:105414008C91882324F083E0F801848346C08D2F87
:10542400DD0F990B0E942C4640C083E0D8011496EE
:105434008C933BC0E114F104C1F1F70162817381E3
:10544400161617066CF4DC011296ED91FC91139775
:10545400D7018D919C91099583E0F801848325C03F
:105464008D2FDD0F990B0E942C461FC0E114F1040F
:10547400E1F0D7018D919C911197009789F01296D4
:105484006D917C9113976115710551F0D8011296B5
:10549400ED91FC911397099583E0F801848305C08D
:1054A4008D2FDD0F990B0E942C46DF91CF911F9118
:0854B4000F91FF90EF900895A5
:1054BC00AF92BF92CF92DF92EF92FF920F931F9316
:1054CC00CF93DF93CDB7DEB7C95CD109CDBFDEBFBB
:1054DC00F82E6801012BB1F1E0910734F0910834FA
:1054EC00A080B18084E0E816D9F180E2E8122CC0EB
:1054FC002EC08F2D8068F82EFC82C853DF4F888118
:10550C009981C85CD0408D839E83BE016F5F7F4FB5
:10551C00C5010E949E5181112BC06091073470917E
:10552C000834CE0101960E940928182F81110EC053
:10553C004E2D50E0BE01685F7F4FC6010E949A520B
:10554C00812F16C082EE14C082EE12C011C08E01E3
:10555C0008531F4F8F2D0E948B42811109C0C9CF58
:10556C008E0108531F4F8F2D0E948B42882321F2EE
:10557C00C753DF4FCDBFDEBFDF91CF911F910F918E
:0E558C00FF90EF90DF90CF90BF90AF9008950A
:10559A000F931F930E948D53E0910B34F0910C34BA
:1055AA00309719F40E94554C5CC04091D933509100
:1055BA00DA336091DB337091DC3386819781A08581
:1055CA00B185841B950BA60BB70B009701E0A007CA
:1055DA00B10500F14091D9335091DA336091DB3350
:1055EA007091DC33A9E0B3E3415051096F4F7F4F0B
:1055FA0016964D935D936D937C9319971496ED933C
:10560A00FC931597A0930B34B0930C348FEF9FEF54
:10561A00A0E0B0E04FEF5FEF60E070E08A019B012D
:10562A00081B190B2A0B3B0B0093D5331093D63367
:10563A002093D7333093D83380E090E00E94F5501E
:10564A000E9493538091D5339091D633A091D7334A
:10565A00B091D8330E94F5500E94875381E080931D
:08566A0043341F910F910895D4
:10567200EF92FF920F931F93CF93DF93CDB7DEB7D5
:10568200C75CD109CDBFDEBFA0910734B091083409
:10569200ED90FC90982F93708C836D837E83923073
:1056A20048F484E1FA01DE01179601900D928A9581
:1056B200E1F715C09330B1F585FF09C080E4FA0126
:1056C200DE01179601900D928A95E1F708C080E2FB
:1056D200FA01DE01179601900D928A95E1F7890190
:1056E200BE016F5F7F4FC7010E94B44981111FC085
:1056F2006091073470910834CE0101960E94092806
:10570200811115C00115110579F08F81833270F076
:1057120080E2FE013896D80101900D928A95E1F758
:1057220080E005C082EE03C080E001C080E0C95382
:10573200DF4FCDBFDEBFDF91CF911F910F91FF9061
:04574200EF90089547
:105746004115510509F45AC0E0910734F091083427
:105756000280F381E02D0180F281E02D918191118B
:105766001BC0813059F018F0823079F049C088E5C5
:1057760090E0FA018083918380E0089580E490E0D0
:10578600FA018083918380E0089580E290E0FA0137
:105796008083918380E00895813059F018F082303B
:1057A60079F030C080E890E0FA018083918380E050
:1057B600089580E490E0FA018083918380E0089563
:1057C6006830710538F484E290E0FA0180839183B1
:1057D60080E008956830710539F480EA91E0FA01B5
:1057E6008083918380E008956031710568F488E4D0
:1057F60090E0FA018083918380E0089582EE089517
:0C58060082EE089582EE089582EE08956F
:10581200CF93DF9310920A2810920B2810920C2833
:1058220010920D2880910E288D7F886080930E281B
:1058320080910928877F8B7F809309280E9462408C
:1058420061EC7FE48AEE99E20E9476520E941B4547
:10585200CFE0D8E28AE0FE0111928A95E9F7CE0103
:105862000E940B540E94A954FC018089918988836B
:10587200998383EA94E58A839B8380917C28882399
:1058820039F081E09091F228911103C080E001C0CB
:1058920080E00E9423448823A1F083EC92E30E94DB
:1058A200E64C40E157E260E070E08DEC92E30E944A
:1058B200FE2E809109288D7F88608160809309285F
:1058C20005C0809109288E7F8093092860E070E0EE
:0858D200CB01DF91CF91089595
:1058DA00FC01892B09F444C08081882309F442C061
:1058EA00DF010D900020E9F71197AE1BBF0B9197CE
:1058FA00D8F581A181508E30C8F5DF01AF5BBF4F6B
:10590A008C91811108C011968C91811104C0119655
:10591A008C91882369F187AD813061F18330B9F4C4
:10592A0082A18150843040F583A18F7E8A3031F57F
:10593A0084A1882329F1B496DF010D900020E9F7AC
:10594A001197AE1BBF0B5B97E8F084EF0895823086
:10595A00D9F483A190E00897C997C0F084EF08951D
:10596A0084EF089584EF089584EF089584EF0895ED
:10597A0084EF089580E0089584EF089584EF0895F0
:10598A0084EF089580E0089584EF089580E00895F3
:10599A00CF92DF92EF92FF920F931F93CF93DF93F1
:1059AA00CDB7DEB7C054D109CDBFDEBFFA013097FB
:1059BA00D1F120813181232BC1F19381915094300F
:1059CA00B0F592819F7E9A30A1F57A019B018E01F2
:1059DA000F5F1F4F40E150E063E00E94FD288111F4
:1059EA0029C0F7018381815089AB428146954AAB30
:1059FA0060817181CE01C3960E94333B0F2EF0E382
:105A0A00CF2ED12CF02D6894EE24E4F8F12C005D11
:105A1A001F4F20E330E0AE014F5F5F4F6BEB81E039
:105A2A000E945A1507C081EF05C081EF03C081EFBC
:105A3A0001C081EFC05CDF4FCDBFDEBFDF91CF91E8
:0E5A4A001F910F91FF90EF90DF90CF90089585
:105A580025730420257320257320001B5B306D0DF2
:105A6800001B5B33376D4E4F524D414C1B5B333738
